{
  "contracts/SimpleArtMarket.sol": {
    "SimpleArtMarket": {
      "abi": [
        {
          "inputs": [],
          "stateMutability": "nonpayable",
          "type": "constructor"
        },
        {
          "anonymous": false,
          "inputs": [
            {
              "indexed": true,
              "internalType": "uint256",
              "name": "id",
              "type": "uint256"
            },
            {
              "indexed": true,
              "internalType": "address",
              "name": "buyer",
              "type": "address"
            },
            {
              "indexed": true,
              "internalType": "address",
              "name": "seller",
              "type": "address"
            },
            {
              "indexed": false,
              "internalType": "uint256",
              "name": "price",
              "type": "uint256"
            }
          ],
          "name": "ArtBought",
          "type": "event"
        },
        {
          "anonymous": false,
          "inputs": [
            {
              "indexed": true,
              "internalType": "uint256",
              "name": "id",
              "type": "uint256"
            },
            {
              "indexed": true,
              "internalType": "address",
              "name": "seller",
              "type": "address"
            },
            {
              "indexed": false,
              "internalType": "uint256",
              "name": "price",
              "type": "uint256"
            },
            {
              "indexed": false,
              "internalType": "string",
              "name": "title",
              "type": "string"
            }
          ],
          "name": "ArtListed",
          "type": "event"
        },
        {
          "anonymous": false,
          "inputs": [
            {
              "indexed": false,
              "internalType": "address",
              "name": "to",
              "type": "address"
            },
            {
              "indexed": false,
              "internalType": "uint256",
              "name": "amount",
              "type": "uint256"
            }
          ],
          "name": "FeesWithdrawn",
          "type": "event"
        },
        {
          "anonymous": false,
          "inputs": [
            {
              "indexed": false,
              "internalType": "uint256",
              "name": "newFee",
              "type": "uint256"
            }
          ],
          "name": "ListingFeeUpdated",
          "type": "event"
        },
        {
          "inputs": [],
          "name": "artCount",
          "outputs": [
            {
              "internalType": "uint256",
              "name": "",
              "type": "uint256"
            }
          ],
          "stateMutability": "view",
          "type": "function"
        },
        {
          "inputs": [
            {
              "internalType": "uint256",
              "name": "id",
              "type": "uint256"
            }
          ],
          "name": "buyArt",
          "outputs": [],
          "stateMutability": "payable",
          "type": "function"
        },
        {
          "inputs": [
            {
              "internalType": "uint256",
              "name": "id",
              "type": "uint256"
            }
          ],
          "name": "getArt",
          "outputs": [
            {
              "internalType": "string",
              "name": "title",
              "type": "string"
            },
            {
              "internalType": "string",
              "name": "imageURL",
              "type": "string"
            },
            {
              "internalType": "uint256",
              "name": "price",
              "type": "uint256"
            },
            {
              "internalType": "address",
              "name": "seller",
              "type": "address"
            },
            {
              "internalType": "address",
              "name": "buyer",
              "type": "address"
            },
            {
              "internalType": "bool",
              "name": "sold",
              "type": "bool"
            }
          ],
          "stateMutability": "view",
          "type": "function"
        },
        {
          "inputs": [
            {
              "internalType": "string",
              "name": "title",
              "type": "string"
            },
            {
              "internalType": "string",
              "name": "imageURL",
              "type": "string"
            },
            {
              "internalType": "uint256",
              "name": "priceWei",
              "type": "uint256"
            }
          ],
          "name": "listArt",
          "outputs": [],
          "stateMutability": "payable",
          "type": "function"
        },
        {
          "inputs": [],
          "name": "listingFee",
          "outputs": [
            {
              "internalType": "uint256",
              "name": "",
              "type": "uint256"
            }
          ],
          "stateMutability": "view",
          "type": "function"
        },
        {
          "inputs": [],
          "name": "owner",
          "outputs": [
            {
              "internalType": "address payable",
              "name": "",
              "type": "address"
            }
          ],
          "stateMutability": "view",
          "type": "function"
        },
        {
          "inputs": [
            {
              "internalType": "uint256",
              "name": "newFee",
              "type": "uint256"
            }
          ],
          "name": "setListingFee",
          "outputs": [],
          "stateMutability": "nonpayable",
          "type": "function"
        },
        {
          "inputs": [
            {
              "internalType": "address payable",
              "name": "to",
              "type": "address"
            }
          ],
          "name": "withdrawFees",
          "outputs": [],
          "stateMutability": "nonpayable",
          "type": "function"
        }
      ],
      "evm": {
        "bytecode": {
          "linkReferences": {},
          "object": "608060405266071afd498d0000600255348015601a57600080fd5b5033600360006101000a81548173ffffffffffffffffffffffffffffffffffffffff021916908373ffffffffffffffffffffffffffffffffffffffff1602179055506118d78061006b6000396000f3fe60806040526004361061007b5760003560e01c80638c4796c71161004e5780638c4796c7146101195780638da5cb5b1461015b578063d3b3e9b014610186578063fc7a900b146101b15761007b565b8063131dbd0914610080578063164e68de146100a95780636a1b7ecc146100d25780637160f0cb146100fd575b600080fd5b34801561008c57600080fd5b506100a760048036038101906100a29190610ccc565b6101cd565b005b3480156100b557600080fd5b506100d060048036038101906100cb9190610d57565b61029e565b005b3480156100de57600080fd5b506100e76103fa565b6040516100f49190610d93565b60405180910390f35b61011760048036038101906101129190610e13565b610400565b005b34801561012557600080fd5b50610140600480360381019061013b9190610ccc565b610769565b60405161015296959493929190610f74565b60405180910390f35b34801561016757600080fd5b50610170610971565b60405161017d9190610ff2565b60405180910390f35b34801561019257600080fd5b5061019b610997565b6040516101a89190610d93565b60405180910390f35b6101cb60048036038101906101c69190610ccc565b61099d565b005b600360009054906101000a900473ffffffffffffffffffffffffffffffffffffffff1673ffffffffffffffffffffffffffffffffffffffff163373ffffffffffffffffffffffffffffffffffffffff161461025d576040517f08c379a000000000000000000000000000000000000000000000000000000000815260040161025490611059565b60405180910390fd5b806002819055507f5fb4654f1efe30c6141eaa6855ffcb27e0b361d899b05e21b1a4d0b3e71e14db816040516102939190610d93565b60405180910390a150565b600360009054906101000a900473ffffffffffffffffffffffffffffffffffffffff1673ffffffffffffffffffffffffffffffffffffffff163373ffffffffffffffffffffffffffffffffffffffff161461032e576040517f08c379a000000000000000000000000000000000000000000000000000000000815260040161032590611059565b60405180910390fd5b600047905060008111610376576040517f08c379a000000000000000000000000000000000000000000000000000000000815260040161036d906110c5565b60405180910390fd5b8173ffffffffffffffffffffffffffffffffffffffff166108fc829081150290604051600060405180830381858888f193505050501580156103bc573d6000803e3d6000fd5b507fc0819c13be868895eb93e40eaceb96de976442fa1d404e5c55f14bb65a8c489a82826040516103ee929190611144565b60405180910390a15050565b60025481565b600254341015610445576040517f08c379a000000000000000000000000000000000000000000000000000000000815260040161043c906111b9565b60405180910390fd5b6000858590501161048b576040517f08c379a000000000000000000000000000000000000000000000000000000000815260040161048290611225565b60405180910390fd5b600083839050116104d1576040517f08c379a00000000000000000000000000000000000000000000000000000000081526004016104c890611291565b60405180910390fd5b60008111610514576040517f08c379a000000000000000000000000000000000000000000000000000000000815260040161050b906112fd565b60405180910390fd5b6001600080828254610526919061134c565b925050819055506040518060c0016040528086868080601f016020809104026020016040519081016040528093929190818152602001838380828437600081840152601f19601f82011690508083019250505050505050815260200184848080601f016020809104026020016040519081016040528093929190818152602001838380828437600081840152601f19601f8201169050808301925050505050505081526020018281526020013373ffffffffffffffffffffffffffffffffffffffff168152602001600073ffffffffffffffffffffffffffffffffffffffff168152602001600015158152506001600080548152602001908152602001600020600082015181600001908161063b91906115b1565b50602082015181600101908161065191906115b1565b506040820151816002015560608201518160030160006101000a81548173ffffffffffffffffffffffffffffffffffffffff021916908373ffffffffffffffffffffffffffffffffffffffff16021790555060808201518160040160006101000a81548173ffffffffffffffffffffffffffffffffffffffff021916908373ffffffffffffffffffffffffffffffffffffffff16021790555060a08201518160040160146101000a81548160ff0219169083151502179055509050503373ffffffffffffffffffffffffffffffffffffffff166000547fda9a965882b8956b9b62137576a53373e4849a38734872a25165c9bcbd201b0b83888860405161075a939291906116bf565b60405180910390a35050505050565b60608060008060008060008711801561078457506000548711155b6107c3576040517f08c379a00000000000000000000000000000000000000000000000000000000081526004016107ba9061173d565b60405180910390fd5b6000600160008981526020019081526020016000209050806000018160010182600201548360030160009054906101000a900473ffffffffffffffffffffffffffffffffffffffff168460040160009054906101000a900473ffffffffffffffffffffffffffffffffffffffff168560040160149054906101000a900460ff1685805461084f906113de565b80601f016020809104026020016040519081016040528092919081815260200182805461087b906113de565b80156108c85780601f1061089d576101008083540402835291602001916108c8565b820191906000526020600020905b8154815290600101906020018083116108ab57829003601f168201915b505050505095508480546108db906113de565b80601f0160208091040260200160405190810160405280929190818152602001828054610907906113de565b80156109545780601f1061092957610100808354040283529160200191610954565b820191906000526020600020905b81548152906001019060200180831161093757829003601f168201915b505050505094509650965096509650965096505091939550919395565b600360009054906101000a900473ffffffffffffffffffffffffffffffffffffffff1681565b60005481565b6000811180156109af57506000548111155b6109ee576040517f08c379a00000000000000000000000000000000000000000000000000000000081526004016109e59061173d565b60405180910390fd5b60006001600083815260200190815260200160002090508060040160149054906101000a900460ff1615610a57576040517f08c379a0000000000000000000000000000000000000000000000000000000008152600401610a4e906117a9565b60405180910390fd5b8060030160009054906101000a900473ffffffffffffffffffffffffffffffffffffffff1673ffffffffffffffffffffffffffffffffffffffff163373ffffffffffffffffffffffffffffffffffffffff1603610ae9576040517f08c379a0000000000000000000000000000000000000000000000000000000008152600401610ae090611815565b60405180910390fd5b80600201543414610b2f576040517f08c379a0000000000000000000000000000000000000000000000000000000008152600401610b2690611881565b60405180910390fd5b60018160040160146101000a81548160ff021916908315150217905550338160040160006101000a81548173ffffffffffffffffffffffffffffffffffffffff021916908373ffffffffffffffffffffffffffffffffffffffff1602179055508060030160009054906101000a900473ffffffffffffffffffffffffffffffffffffffff1673ffffffffffffffffffffffffffffffffffffffff166108fc349081150290604051600060405180830381858888f19350505050158015610bf9573d6000803e3d6000fd5b508060030160009054906101000a900473ffffffffffffffffffffffffffffffffffffffff1673ffffffffffffffffffffffffffffffffffffffff163373ffffffffffffffffffffffffffffffffffffffff16837fcc678b4ddedcb4b06fe436a1105899f4924c13704d381fd73e87b30c2aab49108460020154604051610c809190610d93565b60405180910390a45050565b600080fd5b600080fd5b6000819050919050565b610ca981610c96565b8114610cb457600080fd5b50565b600081359050610cc681610ca0565b92915050565b600060208284031215610ce257610ce1610c8c565b5b6000610cf084828501610cb7565b91505092915050565b600073ffffffffffffffffffffffffffffffffffffffff82169050919050565b6000610d2482610cf9565b9050919050565b610d3481610d19565b8114610d3f57600080fd5b50565b600081359050610d5181610d2b565b92915050565b600060208284031215610d6d57610d6c610c8c565b5b6000610d7b84828501610d42565b91505092915050565b610d8d81610c96565b82525050565b6000602082019050610da86000830184610d84565b92915050565b600080fd5b600080fd5b600080fd5b60008083601f840112610dd357610dd2610dae565b5b8235905067ffffffffffffffff811115610df057610def610db3565b5b602083019150836001820283011115610e0c57610e0b610db8565b5b9250929050565b600080600080600060608688031215610e2f57610e2e610c8c565b5b600086013567ffffffffffffffff811115610e4d57610e4c610c91565b5b610e5988828901610dbd565b9550955050602086013567ffffffffffffffff811115610e7c57610e7b610c91565b5b610e8888828901610dbd565b93509350506040610e9b88828901610cb7565b9150509295509295909350565b600081519050919050565b600082825260208201905092915050565b60005b83811015610ee2578082015181840152602081019050610ec7565b60008484015250505050565b6000601f19601f8301169050919050565b6000610f0a82610ea8565b610f148185610eb3565b9350610f24818560208601610ec4565b610f2d81610eee565b840191505092915050565b6000610f4382610cf9565b9050919050565b610f5381610f38565b82525050565b60008115159050919050565b610f6e81610f59565b82525050565b600060c0820190508181036000830152610f8e8189610eff565b90508181036020830152610fa28188610eff565b9050610fb16040830187610d84565b610fbe6060830186610f4a565b610fcb6080830185610f4a565b610fd860a0830184610f65565b979650505050505050565b610fec81610d19565b82525050565b60006020820190506110076000830184610fe3565b92915050565b7f4f6e6c79206f776e657200000000000000000000000000000000000000000000600082015250565b6000611043600a83610eb3565b915061104e8261100d565b602082019050919050565b6000602082019050818103600083015261107281611036565b9050919050565b7f4e6f206665657300000000000000000000000000000000000000000000000000600082015250565b60006110af600783610eb3565b91506110ba82611079565b602082019050919050565b600060208201905081810360008301526110de816110a2565b9050919050565b6000819050919050565b600061110a61110561110084610cf9565b6110e5565b610cf9565b9050919050565b600061111c826110ef565b9050919050565b600061112e82611111565b9050919050565b61113e81611123565b82525050565b60006040820190506111596000830185611135565b6111666020830184610d84565b9392505050565b7f4c697374696e6720666565206e6f742070616964000000000000000000000000600082015250565b60006111a3601483610eb3565b91506111ae8261116d565b602082019050919050565b600060208201905081810360008301526111d281611196565b9050919050565b7f456d707479207469746c65000000000000000000000000000000000000000000600082015250565b600061120f600b83610eb3565b915061121a826111d9565b602082019050919050565b6000602082019050818103600083015261123e81611202565b9050919050565b7f456d70747920696d61676555524c000000000000000000000000000000000000600082015250565b600061127b600e83610eb3565b915061128682611245565b602082019050919050565b600060208201905081810360008301526112aa8161126e565b9050919050565b7f5072696365206d757374206265203e2030000000000000000000000000000000600082015250565b60006112e7601183610eb3565b91506112f2826112b1565b602082019050919050565b60006020820190508181036000830152611316816112da565b9050919050565b7f4e487b7100000000000000000000000000000000000000000000000000000000600052601160045260246000fd5b600061135782610c96565b915061136283610c96565b925082820190508082111561137a5761137961131d565b5b92915050565b7f4e487b7100000000000000000000000000000000000000000000000000000000600052604160045260246000fd5b7f4e487b7100000000000000000000000000000000000000000000000000000000600052602260045260246000fd5b600060028204905060018216806113f657607f821691505b602082108103611409576114086113af565b5b50919050565b60008190508160005260206000209050919050565b60006020601f8301049050919050565b600082821b905092915050565b6000600883026114717fffffffffffffffffffffffffffffffffffffffffffffffffffffffffffffffff82611434565b61147b8683611434565b95508019841693508086168417925050509392505050565b60006114ae6114a96114a484610c96565b6110e5565b610c96565b9050919050565b6000819050919050565b6114c883611493565b6114dc6114d4826114b5565b848454611441565b825550505050565b600090565b6114f16114e4565b6114fc8184846114bf565b505050565b5b81811015611520576115156000826114e9565b600181019050611502565b5050565b601f821115611565576115368161140f565b61153f84611424565b8101602085101561154e578190505b61156261155a85611424565b830182611501565b50505b505050565b600082821c905092915050565b60006115886000198460080261156a565b1980831691505092915050565b60006115a18383611577565b9150826002028217905092915050565b6115ba82610ea8565b67ffffffffffffffff8111156115d3576115d2611380565b5b6115dd82546113de565b6115e8828285611524565b600060209050601f83116001811461161b5760008415611609578287015190505b6116138582611595565b86555061167b565b601f1984166116298661140f565b60005b828110156116515784890151825560018201915060208501945060208101905061162c565b8683101561166e578489015161166a601f891682611577565b8355505b6001600288020188555050505b505050505050565b82818337600083830152505050565b600061169e8385610eb3565b93506116ab838584611683565b6116b483610eee565b840190509392505050565b60006040820190506116d46000830186610d84565b81810360208301526116e7818486611692565b9050949350505050565b7f496e76616c696420696400000000000000000000000000000000000000000000600082015250565b6000611727600a83610eb3565b9150611732826116f1565b602082019050919050565b600060208201905081810360008301526117568161171a565b9050919050565b7f416c726561647920736f6c640000000000000000000000000000000000000000600082015250565b6000611793600c83610eb3565b915061179e8261175d565b602082019050919050565b600060208201905081810360008301526117c281611786565b9050919050565b7f43616e6e6f742062757920796f7572206f776e20617274000000000000000000600082015250565b60006117ff601783610eb3565b915061180a826117c9565b602082019050919050565b6000602082019050818103600083015261182e816117f2565b9050919050565b7f53656e6420657861637420707269636500000000000000000000000000000000600082015250565b600061186b601083610eb3565b915061187682611835565b602082019050919050565b6000602082019050818103600083015261189a8161185e565b905091905056fea264697066735822122096f622b8c659fbf38ccc97d362d47bb3dc87db1db7532356080bc5e6df9b391f64736f6c634300081c0033",
          "opcodes": "PUSH1 0x80 PUSH1 0x40 MSTORE PUSH7 0x71AFD498D0000 PUSH1 0x2 SSTORE CALLVALUE DUP1 ISZERO PUSH1 0x1A JUMPI PUSH1 0x0 DUP1 REVERT JUMPDEST POP CALLER PUSH1 0x3 PUSH1 0x0 PUSH2 0x100 EXP DUP2 SLOAD DUP2 PUSH20 0xFFFFFFFFFFFFFFFFFFFFFFFFFFFFFFFFFFFFFFFF MUL NOT AND SWAP1 DUP4 PUSH20 0xFFFFFFFFFFFFFFFFFFFFFFFFFFFFFFFFFFFFFFFF AND MUL OR SWAP1 SSTORE POP PUSH2 0x18D7 DUP1 PUSH2 0x6B PUSH1 0x0 CODECOPY PUSH1 0x0 RETURN INVALID PUSH1 0x80 PUSH1 0x40 MSTORE PUSH1 0x4 CALLDATASIZE LT PUSH2 0x7B JUMPI PUSH1 0x0 CALLDATALOAD PUSH1 0xE0 SHR DUP1 PUSH4 0x8C4796C7 GT PUSH2 0x4E JUMPI DUP1 PUSH4 0x8C4796C7 EQ PUSH2 0x119 JUMPI DUP1 PUSH4 0x8DA5CB5B EQ PUSH2 0x15B JUMPI DUP1 PUSH4 0xD3B3E9B0 EQ PUSH2 0x186 JUMPI DUP1 PUSH4 0xFC7A900B EQ PUSH2 0x1B1 JUMPI PUSH2 0x7B JUMP JUMPDEST DUP1 PUSH4 0x131DBD09 EQ PUSH2 0x80 JUMPI DUP1 PUSH4 0x164E68DE EQ PUSH2 0xA9 JUMPI DUP1 PUSH4 0x6A1B7ECC EQ PUSH2 0xD2 JUMPI DUP1 PUSH4 0x7160F0CB EQ PUSH2 0xFD JUMPI JUMPDEST PUSH1 0x0 DUP1 REVERT JUMPDEST CALLVALUE DUP1 ISZERO PUSH2 0x8C JUMPI PUSH1 0x0 DUP1 REVERT JUMPDEST POP PUSH2 0xA7 PUSH1 0x4 DUP1 CALLDATASIZE SUB DUP2 ADD SWAP1 PUSH2 0xA2 SWAP2 SWAP1 PUSH2 0xCCC JUMP JUMPDEST PUSH2 0x1CD JUMP JUMPDEST STOP JUMPDEST CALLVALUE DUP1 ISZERO PUSH2 0xB5 JUMPI PUSH1 0x0 DUP1 REVERT JUMPDEST POP PUSH2 0xD0 PUSH1 0x4 DUP1 CALLDATASIZE SUB DUP2 ADD SWAP1 PUSH2 0xCB SWAP2 SWAP1 PUSH2 0xD57 JUMP JUMPDEST PUSH2 0x29E JUMP JUMPDEST STOP JUMPDEST CALLVALUE DUP1 ISZERO PUSH2 0xDE JUMPI PUSH1 0x0 DUP1 REVERT JUMPDEST POP PUSH2 0xE7 PUSH2 0x3FA JUMP JUMPDEST PUSH1 0x40 MLOAD PUSH2 0xF4 SWAP2 SWAP1 PUSH2 0xD93 JUMP JUMPDEST PUSH1 0x40 MLOAD DUP1 SWAP2 SUB SWAP1 RETURN JUMPDEST PUSH2 0x117 PUSH1 0x4 DUP1 CALLDATASIZE SUB DUP2 ADD SWAP1 PUSH2 0x112 SWAP2 SWAP1 PUSH2 0xE13 JUMP JUMPDEST PUSH2 0x400 JUMP JUMPDEST STOP JUMPDEST CALLVALUE DUP1 ISZERO PUSH2 0x125 JUMPI PUSH1 0x0 DUP1 REVERT JUMPDEST POP PUSH2 0x140 PUSH1 0x4 DUP1 CALLDATASIZE SUB DUP2 ADD SWAP1 PUSH2 0x13B SWAP2 SWAP1 PUSH2 0xCCC JUMP JUMPDEST PUSH2 0x769 JUMP JUMPDEST PUSH1 0x40 MLOAD PUSH2 0x152 SWAP7 SWAP6 SWAP5 SWAP4 SWAP3 SWAP2 SWAP1 PUSH2 0xF74 JUMP JUMPDEST PUSH1 0x40 MLOAD DUP1 SWAP2 SUB SWAP1 RETURN JUMPDEST CALLVALUE DUP1 ISZERO PUSH2 0x167 JUMPI PUSH1 0x0 DUP1 REVERT JUMPDEST POP PUSH2 0x170 PUSH2 0x971 JUMP JUMPDEST PUSH1 0x40 MLOAD PUSH2 0x17D SWAP2 SWAP1 PUSH2 0xFF2 JUMP JUMPDEST PUSH1 0x40 MLOAD DUP1 SWAP2 SUB SWAP1 RETURN JUMPDEST CALLVALUE DUP1 ISZERO PUSH2 0x192 JUMPI PUSH1 0x0 DUP1 REVERT JUMPDEST POP PUSH2 0x19B PUSH2 0x997 JUMP JUMPDEST PUSH1 0x40 MLOAD PUSH2 0x1A8 SWAP2 SWAP1 PUSH2 0xD93 JUMP JUMPDEST PUSH1 0x40 MLOAD DUP1 SWAP2 SUB SWAP1 RETURN JUMPDEST PUSH2 0x1CB PUSH1 0x4 DUP1 CALLDATASIZE SUB DUP2 ADD SWAP1 PUSH2 0x1C6 SWAP2 SWAP1 PUSH2 0xCCC JUMP JUMPDEST PUSH2 0x99D JUMP JUMPDEST STOP JUMPDEST PUSH1 0x3 PUSH1 0x0 SWAP1 SLOAD SWAP1 PUSH2 0x100 EXP SWAP1 DIV PUSH20 0xFFFFFFFFFFFFFFFFFFFFFFFFFFFFFFFFFFFFFFFF AND PUSH20 0xFFFFFFFFFFFFFFFFFFFFFFFFFFFFFFFFFFFFFFFF AND CALLER PUSH20 0xFFFFFFFFFFFFFFFFFFFFFFFFFFFFFFFFFFFFFFFF AND EQ PUSH2 0x25D JUMPI PUSH1 0x40 MLOAD PUSH32 0x8C379A000000000000000000000000000000000000000000000000000000000 DUP2 MSTORE PUSH1 0x4 ADD PUSH2 0x254 SWAP1 PUSH2 0x1059 JUMP JUMPDEST PUSH1 0x40 MLOAD DUP1 SWAP2 SUB SWAP1 REVERT JUMPDEST DUP1 PUSH1 0x2 DUP2 SWAP1 SSTORE POP PUSH32 0x5FB4654F1EFE30C6141EAA6855FFCB27E0B361D899B05E21B1A4D0B3E71E14DB DUP2 PUSH1 0x40 MLOAD PUSH2 0x293 SWAP2 SWAP1 PUSH2 0xD93 JUMP JUMPDEST PUSH1 0x40 MLOAD DUP1 SWAP2 SUB SWAP1 LOG1 POP JUMP JUMPDEST PUSH1 0x3 PUSH1 0x0 SWAP1 SLOAD SWAP1 PUSH2 0x100 EXP SWAP1 DIV PUSH20 0xFFFFFFFFFFFFFFFFFFFFFFFFFFFFFFFFFFFFFFFF AND PUSH20 0xFFFFFFFFFFFFFFFFFFFFFFFFFFFFFFFFFFFFFFFF AND CALLER PUSH20 0xFFFFFFFFFFFFFFFFFFFFFFFFFFFFFFFFFFFFFFFF AND EQ PUSH2 0x32E JUMPI PUSH1 0x40 MLOAD PUSH32 0x8C379A000000000000000000000000000000000000000000000000000000000 DUP2 MSTORE PUSH1 0x4 ADD PUSH2 0x325 SWAP1 PUSH2 0x1059 JUMP JUMPDEST PUSH1 0x40 MLOAD DUP1 SWAP2 SUB SWAP1 REVERT JUMPDEST PUSH1 0x0 SELFBALANCE SWAP1 POP PUSH1 0x0 DUP2 GT PUSH2 0x376 JUMPI PUSH1 0x40 MLOAD PUSH32 0x8C379A000000000000000000000000000000000000000000000000000000000 DUP2 MSTORE PUSH1 0x4 ADD PUSH2 0x36D SWAP1 PUSH2 0x10C5 JUMP JUMPDEST PUSH1 0x40 MLOAD DUP1 SWAP2 SUB SWAP1 REVERT JUMPDEST DUP2 PUSH20 0xFFFFFFFFFFFFFFFFFFFFFFFFFFFFFFFFFFFFFFFF AND PUSH2 0x8FC DUP3 SWAP1 DUP2 ISZERO MUL SWAP1 PUSH1 0x40 MLOAD PUSH1 0x0 PUSH1 0x40 MLOAD DUP1 DUP4 SUB DUP2 DUP6 DUP9 DUP9 CALL SWAP4 POP POP POP POP ISZERO DUP1 ISZERO PUSH2 0x3BC JUMPI RETURNDATASIZE PUSH1 0x0 DUP1 RETURNDATACOPY RETURNDATASIZE PUSH1 0x0 REVERT JUMPDEST POP PUSH32 0xC0819C13BE868895EB93E40EACEB96DE976442FA1D404E5C55F14BB65A8C489A DUP3 DUP3 PUSH1 0x40 MLOAD PUSH2 0x3EE SWAP3 SWAP2 SWAP1 PUSH2 0x1144 JUMP JUMPDEST PUSH1 0x40 MLOAD DUP1 SWAP2 SUB SWAP1 LOG1 POP POP JUMP JUMPDEST PUSH1 0x2 SLOAD DUP2 JUMP JUMPDEST PUSH1 0x2 SLOAD CALLVALUE LT ISZERO PUSH2 0x445 JUMPI PUSH1 0x40 MLOAD PUSH32 0x8C379A000000000000000000000000000000000000000000000000000000000 DUP2 MSTORE PUSH1 0x4 ADD PUSH2 0x43C SWAP1 PUSH2 0x11B9 JUMP JUMPDEST PUSH1 0x40 MLOAD DUP1 SWAP2 SUB SWAP1 REVERT JUMPDEST PUSH1 0x0 DUP6 DUP6 SWAP1 POP GT PUSH2 0x48B JUMPI PUSH1 0x40 MLOAD PUSH32 0x8C379A000000000000000000000000000000000000000000000000000000000 DUP2 MSTORE PUSH1 0x4 ADD PUSH2 0x482 SWAP1 PUSH2 0x1225 JUMP JUMPDEST PUSH1 0x40 MLOAD DUP1 SWAP2 SUB SWAP1 REVERT JUMPDEST PUSH1 0x0 DUP4 DUP4 SWAP1 POP GT PUSH2 0x4D1 JUMPI PUSH1 0x40 MLOAD PUSH32 0x8C379A000000000000000000000000000000000000000000000000000000000 DUP2 MSTORE PUSH1 0x4 ADD PUSH2 0x4C8 SWAP1 PUSH2 0x1291 JUMP JUMPDEST PUSH1 0x40 MLOAD DUP1 SWAP2 SUB SWAP1 REVERT JUMPDEST PUSH1 0x0 DUP2 GT PUSH2 0x514 JUMPI PUSH1 0x40 MLOAD PUSH32 0x8C379A000000000000000000000000000000000000000000000000000000000 DUP2 MSTORE PUSH1 0x4 ADD PUSH2 0x50B SWAP1 PUSH2 0x12FD JUMP JUMPDEST PUSH1 0x40 MLOAD DUP1 SWAP2 SUB SWAP1 REVERT JUMPDEST PUSH1 0x1 PUSH1 0x0 DUP1 DUP3 DUP3 SLOAD PUSH2 0x526 SWAP2 SWAP1 PUSH2 0x134C JUMP JUMPDEST SWAP3 POP POP DUP2 SWAP1 SSTORE POP PUSH1 0x40 MLOAD DUP1 PUSH1 0xC0 ADD PUSH1 0x40 MSTORE DUP1 DUP7 DUP7 DUP1 DUP1 PUSH1 0x1F ADD PUSH1 0x20 DUP1 SWAP2 DIV MUL PUSH1 0x20 ADD PUSH1 0x40 MLOAD SWAP1 DUP2 ADD PUSH1 0x40 MSTORE DUP1 SWAP4 SWAP3 SWAP2 SWAP1 DUP2 DUP2 MSTORE PUSH1 0x20 ADD DUP4 DUP4 DUP1 DUP3 DUP5 CALLDATACOPY PUSH1 0x0 DUP2 DUP5 ADD MSTORE PUSH1 0x1F NOT PUSH1 0x1F DUP3 ADD AND SWAP1 POP DUP1 DUP4 ADD SWAP3 POP POP POP POP POP POP POP DUP2 MSTORE PUSH1 0x20 ADD DUP5 DUP5 DUP1 DUP1 PUSH1 0x1F ADD PUSH1 0x20 DUP1 SWAP2 DIV MUL PUSH1 0x20 ADD PUSH1 0x40 MLOAD SWAP1 DUP2 ADD PUSH1 0x40 MSTORE DUP1 SWAP4 SWAP3 SWAP2 SWAP1 DUP2 DUP2 MSTORE PUSH1 0x20 ADD DUP4 DUP4 DUP1 DUP3 DUP5 CALLDATACOPY PUSH1 0x0 DUP2 DUP5 ADD MSTORE PUSH1 0x1F NOT PUSH1 0x1F DUP3 ADD AND SWAP1 POP DUP1 DUP4 ADD SWAP3 POP POP POP POP POP POP POP DUP2 MSTORE PUSH1 0x20 ADD DUP3 DUP2 MSTORE PUSH1 0x20 ADD CALLER PUSH20 0xFFFFFFFFFFFFFFFFFFFFFFFFFFFFFFFFFFFFFFFF AND DUP2 MSTORE PUSH1 0x20 ADD PUSH1 0x0 PUSH20 0xFFFFFFFFFFFFFFFFFFFFFFFFFFFFFFFFFFFFFFFF AND DUP2 MSTORE PUSH1 0x20 ADD PUSH1 0x0 ISZERO ISZERO DUP2 MSTORE POP PUSH1 0x1 PUSH1 0x0 DUP1 SLOAD DUP2 MSTORE PUSH1 0x20 ADD SWAP1 DUP2 MSTORE PUSH1 0x20 ADD PUSH1 0x0 KECCAK256 PUSH1 0x0 DUP3 ADD MLOAD DUP2 PUSH1 0x0 ADD SWAP1 DUP2 PUSH2 0x63B SWAP2 SWAP1 PUSH2 0x15B1 JUMP JUMPDEST POP PUSH1 0x20 DUP3 ADD MLOAD DUP2 PUSH1 0x1 ADD SWAP1 DUP2 PUSH2 0x651 SWAP2 SWAP1 PUSH2 0x15B1 JUMP JUMPDEST POP PUSH1 0x40 DUP3 ADD MLOAD DUP2 PUSH1 0x2 ADD SSTORE PUSH1 0x60 DUP3 ADD MLOAD DUP2 PUSH1 0x3 ADD PUSH1 0x0 PUSH2 0x100 EXP DUP2 SLOAD DUP2 PUSH20 0xFFFFFFFFFFFFFFFFFFFFFFFFFFFFFFFFFFFFFFFF MUL NOT AND SWAP1 DUP4 PUSH20 0xFFFFFFFFFFFFFFFFFFFFFFFFFFFFFFFFFFFFFFFF AND MUL OR SWAP1 SSTORE POP PUSH1 0x80 DUP3 ADD MLOAD DUP2 PUSH1 0x4 ADD PUSH1 0x0 PUSH2 0x100 EXP DUP2 SLOAD DUP2 PUSH20 0xFFFFFFFFFFFFFFFFFFFFFFFFFFFFFFFFFFFFFFFF MUL NOT AND SWAP1 DUP4 PUSH20 0xFFFFFFFFFFFFFFFFFFFFFFFFFFFFFFFFFFFFFFFF AND MUL OR SWAP1 SSTORE POP PUSH1 0xA0 DUP3 ADD MLOAD DUP2 PUSH1 0x4 ADD PUSH1 0x14 PUSH2 0x100 EXP DUP2 SLOAD DUP2 PUSH1 0xFF MUL NOT AND SWAP1 DUP4 ISZERO ISZERO MUL OR SWAP1 SSTORE POP SWAP1 POP POP CALLER PUSH20 0xFFFFFFFFFFFFFFFFFFFFFFFFFFFFFFFFFFFFFFFF AND PUSH1 0x0 SLOAD PUSH32 0xDA9A965882B8956B9B62137576A53373E4849A38734872A25165C9BCBD201B0B DUP4 DUP9 DUP9 PUSH1 0x40 MLOAD PUSH2 0x75A SWAP4 SWAP3 SWAP2 SWAP1 PUSH2 0x16BF JUMP JUMPDEST PUSH1 0x40 MLOAD DUP1 SWAP2 SUB SWAP1 LOG3 POP POP POP POP POP JUMP JUMPDEST PUSH1 0x60 DUP1 PUSH1 0x0 DUP1 PUSH1 0x0 DUP1 PUSH1 0x0 DUP8 GT DUP1 ISZERO PUSH2 0x784 JUMPI POP PUSH1 0x0 SLOAD DUP8 GT ISZERO JUMPDEST PUSH2 0x7C3 JUMPI PUSH1 0x40 MLOAD PUSH32 0x8C379A000000000000000000000000000000000000000000000000000000000 DUP2 MSTORE PUSH1 0x4 ADD PUSH2 0x7BA SWAP1 PUSH2 0x173D JUMP JUMPDEST PUSH1 0x40 MLOAD DUP1 SWAP2 SUB SWAP1 REVERT JUMPDEST PUSH1 0x0 PUSH1 0x1 PUSH1 0x0 DUP10 DUP2 MSTORE PUSH1 0x20 ADD SWAP1 DUP2 MSTORE PUSH1 0x20 ADD PUSH1 0x0 KECCAK256 SWAP1 POP DUP1 PUSH1 0x0 ADD DUP2 PUSH1 0x1 ADD DUP3 PUSH1 0x2 ADD SLOAD DUP4 PUSH1 0x3 ADD PUSH1 0x0 SWAP1 SLOAD SWAP1 PUSH2 0x100 EXP SWAP1 DIV PUSH20 0xFFFFFFFFFFFFFFFFFFFFFFFFFFFFFFFFFFFFFFFF AND DUP5 PUSH1 0x4 ADD PUSH1 0x0 SWAP1 SLOAD SWAP1 PUSH2 0x100 EXP SWAP1 DIV PUSH20 0xFFFFFFFFFFFFFFFFFFFFFFFFFFFFFFFFFFFFFFFF AND DUP6 PUSH1 0x4 ADD PUSH1 0x14 SWAP1 SLOAD SWAP1 PUSH2 0x100 EXP SWAP1 DIV PUSH1 0xFF AND DUP6 DUP1 SLOAD PUSH2 0x84F SWAP1 PUSH2 0x13DE JUMP JUMPDEST DUP1 PUSH1 0x1F ADD PUSH1 0x20 DUP1 SWAP2 DIV MUL PUSH1 0x20 ADD PUSH1 0x40 MLOAD SWAP1 DUP2 ADD PUSH1 0x40 MSTORE DUP1 SWAP3 SWAP2 SWAP1 DUP2 DUP2 MSTORE PUSH1 0x20 ADD DUP3 DUP1 SLOAD PUSH2 0x87B SWAP1 PUSH2 0x13DE JUMP JUMPDEST DUP1 ISZERO PUSH2 0x8C8 JUMPI DUP1 PUSH1 0x1F LT PUSH2 0x89D JUMPI PUSH2 0x100 DUP1 DUP4 SLOAD DIV MUL DUP4 MSTORE SWAP2 PUSH1 0x20 ADD SWAP2 PUSH2 0x8C8 JUMP JUMPDEST DUP3 ADD SWAP2 SWAP1 PUSH1 0x0 MSTORE PUSH1 0x20 PUSH1 0x0 KECCAK256 SWAP1 JUMPDEST DUP2 SLOAD DUP2 MSTORE SWAP1 PUSH1 0x1 ADD SWAP1 PUSH1 0x20 ADD DUP1 DUP4 GT PUSH2 0x8AB JUMPI DUP3 SWAP1 SUB PUSH1 0x1F AND DUP3 ADD SWAP2 JUMPDEST POP POP POP POP POP SWAP6 POP DUP5 DUP1 SLOAD PUSH2 0x8DB SWAP1 PUSH2 0x13DE JUMP JUMPDEST DUP1 PUSH1 0x1F ADD PUSH1 0x20 DUP1 SWAP2 DIV MUL PUSH1 0x20 ADD PUSH1 0x40 MLOAD SWAP1 DUP2 ADD PUSH1 0x40 MSTORE DUP1 SWAP3 SWAP2 SWAP1 DUP2 DUP2 MSTORE PUSH1 0x20 ADD DUP3 DUP1 SLOAD PUSH2 0x907 SWAP1 PUSH2 0x13DE JUMP JUMPDEST DUP1 ISZERO PUSH2 0x954 JUMPI DUP1 PUSH1 0x1F LT PUSH2 0x929 JUMPI PUSH2 0x100 DUP1 DUP4 SLOAD DIV MUL DUP4 MSTORE SWAP2 PUSH1 0x20 ADD SWAP2 PUSH2 0x954 JUMP JUMPDEST DUP3 ADD SWAP2 SWAP1 PUSH1 0x0 MSTORE PUSH1 0x20 PUSH1 0x0 KECCAK256 SWAP1 JUMPDEST DUP2 SLOAD DUP2 MSTORE SWAP1 PUSH1 0x1 ADD SWAP1 PUSH1 0x20 ADD DUP1 DUP4 GT PUSH2 0x937 JUMPI DUP3 SWAP1 SUB PUSH1 0x1F AND DUP3 ADD SWAP2 JUMPDEST POP POP POP POP POP SWAP5 POP SWAP7 POP SWAP7 POP SWAP7 POP SWAP7 POP SWAP7 POP SWAP7 POP POP SWAP2 SWAP4 SWAP6 POP SWAP2 SWAP4 SWAP6 JUMP JUMPDEST PUSH1 0x3 PUSH1 0x0 SWAP1 SLOAD SWAP1 PUSH2 0x100 EXP SWAP1 DIV PUSH20 0xFFFFFFFFFFFFFFFFFFFFFFFFFFFFFFFFFFFFFFFF AND DUP2 JUMP JUMPDEST PUSH1 0x0 SLOAD DUP2 JUMP JUMPDEST PUSH1 0x0 DUP2 GT DUP1 ISZERO PUSH2 0x9AF JUMPI POP PUSH1 0x0 SLOAD DUP2 GT ISZERO JUMPDEST PUSH2 0x9EE JUMPI PUSH1 0x40 MLOAD PUSH32 0x8C379A000000000000000000000000000000000000000000000000000000000 DUP2 MSTORE PUSH1 0x4 ADD PUSH2 0x9E5 SWAP1 PUSH2 0x173D JUMP JUMPDEST PUSH1 0x40 MLOAD DUP1 SWAP2 SUB SWAP1 REVERT JUMPDEST PUSH1 0x0 PUSH1 0x1 PUSH1 0x0 DUP4 DUP2 MSTORE PUSH1 0x20 ADD SWAP1 DUP2 MSTORE PUSH1 0x20 ADD PUSH1 0x0 KECCAK256 SWAP1 POP DUP1 PUSH1 0x4 ADD PUSH1 0x14 SWAP1 SLOAD SWAP1 PUSH2 0x100 EXP SWAP1 DIV PUSH1 0xFF AND ISZERO PUSH2 0xA57 JUMPI PUSH1 0x40 MLOAD PUSH32 0x8C379A000000000000000000000000000000000000000000000000000000000 DUP2 MSTORE PUSH1 0x4 ADD PUSH2 0xA4E SWAP1 PUSH2 0x17A9 JUMP JUMPDEST PUSH1 0x40 MLOAD DUP1 SWAP2 SUB SWAP1 REVERT JUMPDEST DUP1 PUSH1 0x3 ADD PUSH1 0x0 SWAP1 SLOAD SWAP1 PUSH2 0x100 EXP SWAP1 DIV PUSH20 0xFFFFFFFFFFFFFFFFFFFFFFFFFFFFFFFFFFFFFFFF AND PUSH20 0xFFFFFFFFFFFFFFFFFFFFFFFFFFFFFFFFFFFFFFFF AND CALLER PUSH20 0xFFFFFFFFFFFFFFFFFFFFFFFFFFFFFFFFFFFFFFFF AND SUB PUSH2 0xAE9 JUMPI PUSH1 0x40 MLOAD PUSH32 0x8C379A000000000000000000000000000000000000000000000000000000000 DUP2 MSTORE PUSH1 0x4 ADD PUSH2 0xAE0 SWAP1 PUSH2 0x1815 JUMP JUMPDEST PUSH1 0x40 MLOAD DUP1 SWAP2 SUB SWAP1 REVERT JUMPDEST DUP1 PUSH1 0x2 ADD SLOAD CALLVALUE EQ PUSH2 0xB2F JUMPI PUSH1 0x40 MLOAD PUSH32 0x8C379A000000000000000000000000000000000000000000000000000000000 DUP2 MSTORE PUSH1 0x4 ADD PUSH2 0xB26 SWAP1 PUSH2 0x1881 JUMP JUMPDEST PUSH1 0x40 MLOAD DUP1 SWAP2 SUB SWAP1 REVERT JUMPDEST PUSH1 0x1 DUP2 PUSH1 0x4 ADD PUSH1 0x14 PUSH2 0x100 EXP DUP2 SLOAD DUP2 PUSH1 0xFF MUL NOT AND SWAP1 DUP4 ISZERO ISZERO MUL OR SWAP1 SSTORE POP CALLER DUP2 PUSH1 0x4 ADD PUSH1 0x0 PUSH2 0x100 EXP DUP2 SLOAD DUP2 PUSH20 0xFFFFFFFFFFFFFFFFFFFFFFFFFFFFFFFFFFFFFFFF MUL NOT AND SWAP1 DUP4 PUSH20 0xFFFFFFFFFFFFFFFFFFFFFFFFFFFFFFFFFFFFFFFF AND MUL OR SWAP1 SSTORE POP DUP1 PUSH1 0x3 ADD PUSH1 0x0 SWAP1 SLOAD SWAP1 PUSH2 0x100 EXP SWAP1 DIV PUSH20 0xFFFFFFFFFFFFFFFFFFFFFFFFFFFFFFFFFFFFFFFF AND PUSH20 0xFFFFFFFFFFFFFFFFFFFFFFFFFFFFFFFFFFFFFFFF AND PUSH2 0x8FC CALLVALUE SWAP1 DUP2 ISZERO MUL SWAP1 PUSH1 0x40 MLOAD PUSH1 0x0 PUSH1 0x40 MLOAD DUP1 DUP4 SUB DUP2 DUP6 DUP9 DUP9 CALL SWAP4 POP POP POP POP ISZERO DUP1 ISZERO PUSH2 0xBF9 JUMPI RETURNDATASIZE PUSH1 0x0 DUP1 RETURNDATACOPY RETURNDATASIZE PUSH1 0x0 REVERT JUMPDEST POP DUP1 PUSH1 0x3 ADD PUSH1 0x0 SWAP1 SLOAD SWAP1 PUSH2 0x100 EXP SWAP1 DIV PUSH20 0xFFFFFFFFFFFFFFFFFFFFFFFFFFFFFFFFFFFFFFFF AND PUSH20 0xFFFFFFFFFFFFFFFFFFFFFFFFFFFFFFFFFFFFFFFF AND CALLER PUSH20 0xFFFFFFFFFFFFFFFFFFFFFFFFFFFFFFFFFFFFFFFF AND DUP4 PUSH32 0xCC678B4DDEDCB4B06FE436A1105899F4924C13704D381FD73E87B30C2AAB4910 DUP5 PUSH1 0x2 ADD SLOAD PUSH1 0x40 MLOAD PUSH2 0xC80 SWAP2 SWAP1 PUSH2 0xD93 JUMP JUMPDEST PUSH1 0x40 MLOAD DUP1 SWAP2 SUB SWAP1 LOG4 POP POP JUMP JUMPDEST PUSH1 0x0 DUP1 REVERT JUMPDEST PUSH1 0x0 DUP1 REVERT JUMPDEST PUSH1 0x0 DUP2 SWAP1 POP SWAP2 SWAP1 POP JUMP JUMPDEST PUSH2 0xCA9 DUP2 PUSH2 0xC96 JUMP JUMPDEST DUP2 EQ PUSH2 0xCB4 JUMPI PUSH1 0x0 DUP1 REVERT JUMPDEST POP JUMP JUMPDEST PUSH1 0x0 DUP2 CALLDATALOAD SWAP1 POP PUSH2 0xCC6 DUP2 PUSH2 0xCA0 JUMP JUMPDEST SWAP3 SWAP2 POP POP JUMP JUMPDEST PUSH1 0x0 PUSH1 0x20 DUP3 DUP5 SUB SLT ISZERO PUSH2 0xCE2 JUMPI PUSH2 0xCE1 PUSH2 0xC8C JUMP JUMPDEST JUMPDEST PUSH1 0x0 PUSH2 0xCF0 DUP5 DUP3 DUP6 ADD PUSH2 0xCB7 JUMP JUMPDEST SWAP2 POP POP SWAP3 SWAP2 POP POP JUMP JUMPDEST PUSH1 0x0 PUSH20 0xFFFFFFFFFFFFFFFFFFFFFFFFFFFFFFFFFFFFFFFF DUP3 AND SWAP1 POP SWAP2 SWAP1 POP JUMP JUMPDEST PUSH1 0x0 PUSH2 0xD24 DUP3 PUSH2 0xCF9 JUMP JUMPDEST SWAP1 POP SWAP2 SWAP1 POP JUMP JUMPDEST PUSH2 0xD34 DUP2 PUSH2 0xD19 JUMP JUMPDEST DUP2 EQ PUSH2 0xD3F JUMPI PUSH1 0x0 DUP1 REVERT JUMPDEST POP JUMP JUMPDEST PUSH1 0x0 DUP2 CALLDATALOAD SWAP1 POP PUSH2 0xD51 DUP2 PUSH2 0xD2B JUMP JUMPDEST SWAP3 SWAP2 POP POP JUMP JUMPDEST PUSH1 0x0 PUSH1 0x20 DUP3 DUP5 SUB SLT ISZERO PUSH2 0xD6D JUMPI PUSH2 0xD6C PUSH2 0xC8C JUMP JUMPDEST JUMPDEST PUSH1 0x0 PUSH2 0xD7B DUP5 DUP3 DUP6 ADD PUSH2 0xD42 JUMP JUMPDEST SWAP2 POP POP SWAP3 SWAP2 POP POP JUMP JUMPDEST PUSH2 0xD8D DUP2 PUSH2 0xC96 JUMP JUMPDEST DUP3 MSTORE POP POP JUMP JUMPDEST PUSH1 0x0 PUSH1 0x20 DUP3 ADD SWAP1 POP PUSH2 0xDA8 PUSH1 0x0 DUP4 ADD DUP5 PUSH2 0xD84 JUMP JUMPDEST SWAP3 SWAP2 POP POP JUMP JUMPDEST PUSH1 0x0 DUP1 REVERT JUMPDEST PUSH1 0x0 DUP1 REVERT JUMPDEST PUSH1 0x0 DUP1 REVERT JUMPDEST PUSH1 0x0 DUP1 DUP4 PUSH1 0x1F DUP5 ADD SLT PUSH2 0xDD3 JUMPI PUSH2 0xDD2 PUSH2 0xDAE JUMP JUMPDEST JUMPDEST DUP3 CALLDATALOAD SWAP1 POP PUSH8 0xFFFFFFFFFFFFFFFF DUP2 GT ISZERO PUSH2 0xDF0 JUMPI PUSH2 0xDEF PUSH2 0xDB3 JUMP JUMPDEST JUMPDEST PUSH1 0x20 DUP4 ADD SWAP2 POP DUP4 PUSH1 0x1 DUP3 MUL DUP4 ADD GT ISZERO PUSH2 0xE0C JUMPI PUSH2 0xE0B PUSH2 0xDB8 JUMP JUMPDEST JUMPDEST SWAP3 POP SWAP3 SWAP1 POP JUMP JUMPDEST PUSH1 0x0 DUP1 PUSH1 0x0 DUP1 PUSH1 0x0 PUSH1 0x60 DUP7 DUP9 SUB SLT ISZERO PUSH2 0xE2F JUMPI PUSH2 0xE2E PUSH2 0xC8C JUMP JUMPDEST JUMPDEST PUSH1 0x0 DUP7 ADD CALLDATALOAD PUSH8 0xFFFFFFFFFFFFFFFF DUP2 GT ISZERO PUSH2 0xE4D JUMPI PUSH2 0xE4C PUSH2 0xC91 JUMP JUMPDEST JUMPDEST PUSH2 0xE59 DUP9 DUP3 DUP10 ADD PUSH2 0xDBD JUMP JUMPDEST SWAP6 POP SWAP6 POP POP PUSH1 0x20 DUP7 ADD CALLDATALOAD PUSH8 0xFFFFFFFFFFFFFFFF DUP2 GT ISZERO PUSH2 0xE7C JUMPI PUSH2 0xE7B PUSH2 0xC91 JUMP JUMPDEST JUMPDEST PUSH2 0xE88 DUP9 DUP3 DUP10 ADD PUSH2 0xDBD JUMP JUMPDEST SWAP4 POP SWAP4 POP POP PUSH1 0x40 PUSH2 0xE9B DUP9 DUP3 DUP10 ADD PUSH2 0xCB7 JUMP JUMPDEST SWAP2 POP POP SWAP3 SWAP6 POP SWAP3 SWAP6 SWAP1 SWAP4 POP JUMP JUMPDEST PUSH1 0x0 DUP2 MLOAD SWAP1 POP SWAP2 SWAP1 POP JUMP JUMPDEST PUSH1 0x0 DUP3 DUP3 MSTORE PUSH1 0x20 DUP3 ADD SWAP1 POP SWAP3 SWAP2 POP POP JUMP JUMPDEST PUSH1 0x0 JUMPDEST DUP4 DUP2 LT ISZERO PUSH2 0xEE2 JUMPI DUP1 DUP3 ADD MLOAD DUP2 DUP5 ADD MSTORE PUSH1 0x20 DUP2 ADD SWAP1 POP PUSH2 0xEC7 JUMP JUMPDEST PUSH1 0x0 DUP5 DUP5 ADD MSTORE POP POP POP POP JUMP JUMPDEST PUSH1 0x0 PUSH1 0x1F NOT PUSH1 0x1F DUP4 ADD AND SWAP1 POP SWAP2 SWAP1 POP JUMP JUMPDEST PUSH1 0x0 PUSH2 0xF0A DUP3 PUSH2 0xEA8 JUMP JUMPDEST PUSH2 0xF14 DUP2 DUP6 PUSH2 0xEB3 JUMP JUMPDEST SWAP4 POP PUSH2 0xF24 DUP2 DUP6 PUSH1 0x20 DUP7 ADD PUSH2 0xEC4 JUMP JUMPDEST PUSH2 0xF2D DUP2 PUSH2 0xEEE JUMP JUMPDEST DUP5 ADD SWAP2 POP POP SWAP3 SWAP2 POP POP JUMP JUMPDEST PUSH1 0x0 PUSH2 0xF43 DUP3 PUSH2 0xCF9 JUMP JUMPDEST SWAP1 POP SWAP2 SWAP1 POP JUMP JUMPDEST PUSH2 0xF53 DUP2 PUSH2 0xF38 JUMP JUMPDEST DUP3 MSTORE POP POP JUMP JUMPDEST PUSH1 0x0 DUP2 ISZERO ISZERO SWAP1 POP SWAP2 SWAP1 POP JUMP JUMPDEST PUSH2 0xF6E DUP2 PUSH2 0xF59 JUMP JUMPDEST DUP3 MSTORE POP POP JUMP JUMPDEST PUSH1 0x0 PUSH1 0xC0 DUP3 ADD SWAP1 POP DUP2 DUP2 SUB PUSH1 0x0 DUP4 ADD MSTORE PUSH2 0xF8E DUP2 DUP10 PUSH2 0xEFF JUMP JUMPDEST SWAP1 POP DUP2 DUP2 SUB PUSH1 0x20 DUP4 ADD MSTORE PUSH2 0xFA2 DUP2 DUP9 PUSH2 0xEFF JUMP JUMPDEST SWAP1 POP PUSH2 0xFB1 PUSH1 0x40 DUP4 ADD DUP8 PUSH2 0xD84 JUMP JUMPDEST PUSH2 0xFBE PUSH1 0x60 DUP4 ADD DUP7 PUSH2 0xF4A JUMP JUMPDEST PUSH2 0xFCB PUSH1 0x80 DUP4 ADD DUP6 PUSH2 0xF4A JUMP JUMPDEST PUSH2 0xFD8 PUSH1 0xA0 DUP4 ADD DUP5 PUSH2 0xF65 JUMP JUMPDEST SWAP8 SWAP7 POP POP POP POP POP POP POP JUMP JUMPDEST PUSH2 0xFEC DUP2 PUSH2 0xD19 JUMP JUMPDEST DUP3 MSTORE POP POP JUMP JUMPDEST PUSH1 0x0 PUSH1 0x20 DUP3 ADD SWAP1 POP PUSH2 0x1007 PUSH1 0x0 DUP4 ADD DUP5 PUSH2 0xFE3 JUMP JUMPDEST SWAP3 SWAP2 POP POP JUMP JUMPDEST PUSH32 0x4F6E6C79206F776E657200000000000000000000000000000000000000000000 PUSH1 0x0 DUP3 ADD MSTORE POP JUMP JUMPDEST PUSH1 0x0 PUSH2 0x1043 PUSH1 0xA DUP4 PUSH2 0xEB3 JUMP JUMPDEST SWAP2 POP PUSH2 0x104E DUP3 PUSH2 0x100D JUMP JUMPDEST PUSH1 0x20 DUP3 ADD SWAP1 POP SWAP2 SWAP1 POP JUMP JUMPDEST PUSH1 0x0 PUSH1 0x20 DUP3 ADD SWAP1 POP DUP2 DUP2 SUB PUSH1 0x0 DUP4 ADD MSTORE PUSH2 0x1072 DUP2 PUSH2 0x1036 JUMP JUMPDEST SWAP1 POP SWAP2 SWAP1 POP JUMP JUMPDEST PUSH32 0x4E6F206665657300000000000000000000000000000000000000000000000000 PUSH1 0x0 DUP3 ADD MSTORE POP JUMP JUMPDEST PUSH1 0x0 PUSH2 0x10AF PUSH1 0x7 DUP4 PUSH2 0xEB3 JUMP JUMPDEST SWAP2 POP PUSH2 0x10BA DUP3 PUSH2 0x1079 JUMP JUMPDEST PUSH1 0x20 DUP3 ADD SWAP1 POP SWAP2 SWAP1 POP JUMP JUMPDEST PUSH1 0x0 PUSH1 0x20 DUP3 ADD SWAP1 POP DUP2 DUP2 SUB PUSH1 0x0 DUP4 ADD MSTORE PUSH2 0x10DE DUP2 PUSH2 0x10A2 JUMP JUMPDEST SWAP1 POP SWAP2 SWAP1 POP JUMP JUMPDEST PUSH1 0x0 DUP2 SWAP1 POP SWAP2 SWAP1 POP JUMP JUMPDEST PUSH1 0x0 PUSH2 0x110A PUSH2 0x1105 PUSH2 0x1100 DUP5 PUSH2 0xCF9 JUMP JUMPDEST PUSH2 0x10E5 JUMP JUMPDEST PUSH2 0xCF9 JUMP JUMPDEST SWAP1 POP SWAP2 SWAP1 POP JUMP JUMPDEST PUSH1 0x0 PUSH2 0x111C DUP3 PUSH2 0x10EF JUMP JUMPDEST SWAP1 POP SWAP2 SWAP1 POP JUMP JUMPDEST PUSH1 0x0 PUSH2 0x112E DUP3 PUSH2 0x1111 JUMP JUMPDEST SWAP1 POP SWAP2 SWAP1 POP JUMP JUMPDEST PUSH2 0x113E DUP2 PUSH2 0x1123 JUMP JUMPDEST DUP3 MSTORE POP POP JUMP JUMPDEST PUSH1 0x0 PUSH1 0x40 DUP3 ADD SWAP1 POP PUSH2 0x1159 PUSH1 0x0 DUP4 ADD DUP6 PUSH2 0x1135 JUMP JUMPDEST PUSH2 0x1166 PUSH1 0x20 DUP4 ADD DUP5 PUSH2 0xD84 JUMP JUMPDEST SWAP4 SWAP3 POP POP POP JUMP JUMPDEST PUSH32 0x4C697374696E6720666565206E6F742070616964000000000000000000000000 PUSH1 0x0 DUP3 ADD MSTORE POP JUMP JUMPDEST PUSH1 0x0 PUSH2 0x11A3 PUSH1 0x14 DUP4 PUSH2 0xEB3 JUMP JUMPDEST SWAP2 POP PUSH2 0x11AE DUP3 PUSH2 0x116D JUMP JUMPDEST PUSH1 0x20 DUP3 ADD SWAP1 POP SWAP2 SWAP1 POP JUMP JUMPDEST PUSH1 0x0 PUSH1 0x20 DUP3 ADD SWAP1 POP DUP2 DUP2 SUB PUSH1 0x0 DUP4 ADD MSTORE PUSH2 0x11D2 DUP2 PUSH2 0x1196 JUMP JUMPDEST SWAP1 POP SWAP2 SWAP1 POP JUMP JUMPDEST PUSH32 0x456D707479207469746C65000000000000000000000000000000000000000000 PUSH1 0x0 DUP3 ADD MSTORE POP JUMP JUMPDEST PUSH1 0x0 PUSH2 0x120F PUSH1 0xB DUP4 PUSH2 0xEB3 JUMP JUMPDEST SWAP2 POP PUSH2 0x121A DUP3 PUSH2 0x11D9 JUMP JUMPDEST PUSH1 0x20 DUP3 ADD SWAP1 POP SWAP2 SWAP1 POP JUMP JUMPDEST PUSH1 0x0 PUSH1 0x20 DUP3 ADD SWAP1 POP DUP2 DUP2 SUB PUSH1 0x0 DUP4 ADD MSTORE PUSH2 0x123E DUP2 PUSH2 0x1202 JUMP JUMPDEST SWAP1 POP SWAP2 SWAP1 POP JUMP JUMPDEST PUSH32 0x456D70747920696D61676555524C000000000000000000000000000000000000 PUSH1 0x0 DUP3 ADD MSTORE POP JUMP JUMPDEST PUSH1 0x0 PUSH2 0x127B PUSH1 0xE DUP4 PUSH2 0xEB3 JUMP JUMPDEST SWAP2 POP PUSH2 0x1286 DUP3 PUSH2 0x1245 JUMP JUMPDEST PUSH1 0x20 DUP3 ADD SWAP1 POP SWAP2 SWAP1 POP JUMP JUMPDEST PUSH1 0x0 PUSH1 0x20 DUP3 ADD SWAP1 POP DUP2 DUP2 SUB PUSH1 0x0 DUP4 ADD MSTORE PUSH2 0x12AA DUP2 PUSH2 0x126E JUMP JUMPDEST SWAP1 POP SWAP2 SWAP1 POP JUMP JUMPDEST PUSH32 0x5072696365206D757374206265203E2030000000000000000000000000000000 PUSH1 0x0 DUP3 ADD MSTORE POP JUMP JUMPDEST PUSH1 0x0 PUSH2 0x12E7 PUSH1 0x11 DUP4 PUSH2 0xEB3 JUMP JUMPDEST SWAP2 POP PUSH2 0x12F2 DUP3 PUSH2 0x12B1 JUMP JUMPDEST PUSH1 0x20 DUP3 ADD SWAP1 POP SWAP2 SWAP1 POP JUMP JUMPDEST PUSH1 0x0 PUSH1 0x20 DUP3 ADD SWAP1 POP DUP2 DUP2 SUB PUSH1 0x0 DUP4 ADD MSTORE PUSH2 0x1316 DUP2 PUSH2 0x12DA JUMP JUMPDEST SWAP1 POP SWAP2 SWAP1 POP JUMP JUMPDEST PUSH32 0x4E487B7100000000000000000000000000000000000000000000000000000000 PUSH1 0x0 MSTORE PUSH1 0x11 PUSH1 0x4 MSTORE PUSH1 0x24 PUSH1 0x0 REVERT JUMPDEST PUSH1 0x0 PUSH2 0x1357 DUP3 PUSH2 0xC96 JUMP JUMPDEST SWAP2 POP PUSH2 0x1362 DUP4 PUSH2 0xC96 JUMP JUMPDEST SWAP3 POP DUP3 DUP3 ADD SWAP1 POP DUP1 DUP3 GT ISZERO PUSH2 0x137A JUMPI PUSH2 0x1379 PUSH2 0x131D JUMP JUMPDEST JUMPDEST SWAP3 SWAP2 POP POP JUMP JUMPDEST PUSH32 0x4E487B7100000000000000000000000000000000000000000000000000000000 PUSH1 0x0 MSTORE PUSH1 0x41 PUSH1 0x4 MSTORE PUSH1 0x24 PUSH1 0x0 REVERT JUMPDEST PUSH32 0x4E487B7100000000000000000000000000000000000000000000000000000000 PUSH1 0x0 MSTORE PUSH1 0x22 PUSH1 0x4 MSTORE PUSH1 0x24 PUSH1 0x0 REVERT JUMPDEST PUSH1 0x0 PUSH1 0x2 DUP3 DIV SWAP1 POP PUSH1 0x1 DUP3 AND DUP1 PUSH2 0x13F6 JUMPI PUSH1 0x7F DUP3 AND SWAP2 POP JUMPDEST PUSH1 0x20 DUP3 LT DUP2 SUB PUSH2 0x1409 JUMPI PUSH2 0x1408 PUSH2 0x13AF JUMP JUMPDEST JUMPDEST POP SWAP2 SWAP1 POP JUMP JUMPDEST PUSH1 0x0 DUP2 SWAP1 POP DUP2 PUSH1 0x0 MSTORE PUSH1 0x20 PUSH1 0x0 KECCAK256 SWAP1 POP SWAP2 SWAP1 POP JUMP JUMPDEST PUSH1 0x0 PUSH1 0x20 PUSH1 0x1F DUP4 ADD DIV SWAP1 POP SWAP2 SWAP1 POP JUMP JUMPDEST PUSH1 0x0 DUP3 DUP3 SHL SWAP1 POP SWAP3 SWAP2 POP POP JUMP JUMPDEST PUSH1 0x0 PUSH1 0x8 DUP4 MUL PUSH2 0x1471 PUSH32 0xFFFFFFFFFFFFFFFFFFFFFFFFFFFFFFFFFFFFFFFFFFFFFFFFFFFFFFFFFFFFFFFF DUP3 PUSH2 0x1434 JUMP JUMPDEST PUSH2 0x147B DUP7 DUP4 PUSH2 0x1434 JUMP JUMPDEST SWAP6 POP DUP1 NOT DUP5 AND SWAP4 POP DUP1 DUP7 AND DUP5 OR SWAP3 POP POP POP SWAP4 SWAP3 POP POP POP JUMP JUMPDEST PUSH1 0x0 PUSH2 0x14AE PUSH2 0x14A9 PUSH2 0x14A4 DUP5 PUSH2 0xC96 JUMP JUMPDEST PUSH2 0x10E5 JUMP JUMPDEST PUSH2 0xC96 JUMP JUMPDEST SWAP1 POP SWAP2 SWAP1 POP JUMP JUMPDEST PUSH1 0x0 DUP2 SWAP1 POP SWAP2 SWAP1 POP JUMP JUMPDEST PUSH2 0x14C8 DUP4 PUSH2 0x1493 JUMP JUMPDEST PUSH2 0x14DC PUSH2 0x14D4 DUP3 PUSH2 0x14B5 JUMP JUMPDEST DUP5 DUP5 SLOAD PUSH2 0x1441 JUMP JUMPDEST DUP3 SSTORE POP POP POP POP JUMP JUMPDEST PUSH1 0x0 SWAP1 JUMP JUMPDEST PUSH2 0x14F1 PUSH2 0x14E4 JUMP JUMPDEST PUSH2 0x14FC DUP2 DUP5 DUP5 PUSH2 0x14BF JUMP JUMPDEST POP POP POP JUMP JUMPDEST JUMPDEST DUP2 DUP2 LT ISZERO PUSH2 0x1520 JUMPI PUSH2 0x1515 PUSH1 0x0 DUP3 PUSH2 0x14E9 JUMP JUMPDEST PUSH1 0x1 DUP2 ADD SWAP1 POP PUSH2 0x1502 JUMP JUMPDEST POP POP JUMP JUMPDEST PUSH1 0x1F DUP3 GT ISZERO PUSH2 0x1565 JUMPI PUSH2 0x1536 DUP2 PUSH2 0x140F JUMP JUMPDEST PUSH2 0x153F DUP5 PUSH2 0x1424 JUMP JUMPDEST DUP2 ADD PUSH1 0x20 DUP6 LT ISZERO PUSH2 0x154E JUMPI DUP2 SWAP1 POP JUMPDEST PUSH2 0x1562 PUSH2 0x155A DUP6 PUSH2 0x1424 JUMP JUMPDEST DUP4 ADD DUP3 PUSH2 0x1501 JUMP JUMPDEST POP POP JUMPDEST POP POP POP JUMP JUMPDEST PUSH1 0x0 DUP3 DUP3 SHR SWAP1 POP SWAP3 SWAP2 POP POP JUMP JUMPDEST PUSH1 0x0 PUSH2 0x1588 PUSH1 0x0 NOT DUP5 PUSH1 0x8 MUL PUSH2 0x156A JUMP JUMPDEST NOT DUP1 DUP4 AND SWAP2 POP POP SWAP3 SWAP2 POP POP JUMP JUMPDEST PUSH1 0x0 PUSH2 0x15A1 DUP4 DUP4 PUSH2 0x1577 JUMP JUMPDEST SWAP2 POP DUP3 PUSH1 0x2 MUL DUP3 OR SWAP1 POP SWAP3 SWAP2 POP POP JUMP JUMPDEST PUSH2 0x15BA DUP3 PUSH2 0xEA8 JUMP JUMPDEST PUSH8 0xFFFFFFFFFFFFFFFF DUP2 GT ISZERO PUSH2 0x15D3 JUMPI PUSH2 0x15D2 PUSH2 0x1380 JUMP JUMPDEST JUMPDEST PUSH2 0x15DD DUP3 SLOAD PUSH2 0x13DE JUMP JUMPDEST PUSH2 0x15E8 DUP3 DUP3 DUP6 PUSH2 0x1524 JUMP JUMPDEST PUSH1 0x0 PUSH1 0x20 SWAP1 POP PUSH1 0x1F DUP4 GT PUSH1 0x1 DUP2 EQ PUSH2 0x161B JUMPI PUSH1 0x0 DUP5 ISZERO PUSH2 0x1609 JUMPI DUP3 DUP8 ADD MLOAD SWAP1 POP JUMPDEST PUSH2 0x1613 DUP6 DUP3 PUSH2 0x1595 JUMP JUMPDEST DUP7 SSTORE POP PUSH2 0x167B JUMP JUMPDEST PUSH1 0x1F NOT DUP5 AND PUSH2 0x1629 DUP7 PUSH2 0x140F JUMP JUMPDEST PUSH1 0x0 JUMPDEST DUP3 DUP2 LT ISZERO PUSH2 0x1651 JUMPI DUP5 DUP10 ADD MLOAD DUP3 SSTORE PUSH1 0x1 DUP3 ADD SWAP2 POP PUSH1 0x20 DUP6 ADD SWAP5 POP PUSH1 0x20 DUP2 ADD SWAP1 POP PUSH2 0x162C JUMP JUMPDEST DUP7 DUP4 LT ISZERO PUSH2 0x166E JUMPI DUP5 DUP10 ADD MLOAD PUSH2 0x166A PUSH1 0x1F DUP10 AND DUP3 PUSH2 0x1577 JUMP JUMPDEST DUP4 SSTORE POP JUMPDEST PUSH1 0x1 PUSH1 0x2 DUP9 MUL ADD DUP9 SSTORE POP POP POP JUMPDEST POP POP POP POP POP POP JUMP JUMPDEST DUP3 DUP2 DUP4 CALLDATACOPY PUSH1 0x0 DUP4 DUP4 ADD MSTORE POP POP POP JUMP JUMPDEST PUSH1 0x0 PUSH2 0x169E DUP4 DUP6 PUSH2 0xEB3 JUMP JUMPDEST SWAP4 POP PUSH2 0x16AB DUP4 DUP6 DUP5 PUSH2 0x1683 JUMP JUMPDEST PUSH2 0x16B4 DUP4 PUSH2 0xEEE JUMP JUMPDEST DUP5 ADD SWAP1 POP SWAP4 SWAP3 POP POP POP JUMP JUMPDEST PUSH1 0x0 PUSH1 0x40 DUP3 ADD SWAP1 POP PUSH2 0x16D4 PUSH1 0x0 DUP4 ADD DUP7 PUSH2 0xD84 JUMP JUMPDEST DUP2 DUP2 SUB PUSH1 0x20 DUP4 ADD MSTORE PUSH2 0x16E7 DUP2 DUP5 DUP7 PUSH2 0x1692 JUMP JUMPDEST SWAP1 POP SWAP5 SWAP4 POP POP POP POP JUMP JUMPDEST PUSH32 0x496E76616C696420696400000000000000000000000000000000000000000000 PUSH1 0x0 DUP3 ADD MSTORE POP JUMP JUMPDEST PUSH1 0x0 PUSH2 0x1727 PUSH1 0xA DUP4 PUSH2 0xEB3 JUMP JUMPDEST SWAP2 POP PUSH2 0x1732 DUP3 PUSH2 0x16F1 JUMP JUMPDEST PUSH1 0x20 DUP3 ADD SWAP1 POP SWAP2 SWAP1 POP JUMP JUMPDEST PUSH1 0x0 PUSH1 0x20 DUP3 ADD SWAP1 POP DUP2 DUP2 SUB PUSH1 0x0 DUP4 ADD MSTORE PUSH2 0x1756 DUP2 PUSH2 0x171A JUMP JUMPDEST SWAP1 POP SWAP2 SWAP1 POP JUMP JUMPDEST PUSH32 0x416C726561647920736F6C640000000000000000000000000000000000000000 PUSH1 0x0 DUP3 ADD MSTORE POP JUMP JUMPDEST PUSH1 0x0 PUSH2 0x1793 PUSH1 0xC DUP4 PUSH2 0xEB3 JUMP JUMPDEST SWAP2 POP PUSH2 0x179E DUP3 PUSH2 0x175D JUMP JUMPDEST PUSH1 0x20 DUP3 ADD SWAP1 POP SWAP2 SWAP1 POP JUMP JUMPDEST PUSH1 0x0 PUSH1 0x20 DUP3 ADD SWAP1 POP DUP2 DUP2 SUB PUSH1 0x0 DUP4 ADD MSTORE PUSH2 0x17C2 DUP2 PUSH2 0x1786 JUMP JUMPDEST SWAP1 POP SWAP2 SWAP1 POP JUMP JUMPDEST PUSH32 0x43616E6E6F742062757920796F7572206F776E20617274000000000000000000 PUSH1 0x0 DUP3 ADD MSTORE POP JUMP JUMPDEST PUSH1 0x0 PUSH2 0x17FF PUSH1 0x17 DUP4 PUSH2 0xEB3 JUMP JUMPDEST SWAP2 POP PUSH2 0x180A DUP3 PUSH2 0x17C9 JUMP JUMPDEST PUSH1 0x20 DUP3 ADD SWAP1 POP SWAP2 SWAP1 POP JUMP JUMPDEST PUSH1 0x0 PUSH1 0x20 DUP3 ADD SWAP1 POP DUP2 DUP2 SUB PUSH1 0x0 DUP4 ADD MSTORE PUSH2 0x182E DUP2 PUSH2 0x17F2 JUMP JUMPDEST SWAP1 POP SWAP2 SWAP1 POP JUMP JUMPDEST PUSH32 0x53656E6420657861637420707269636500000000000000000000000000000000 PUSH1 0x0 DUP3 ADD MSTORE POP JUMP JUMPDEST PUSH1 0x0 PUSH2 0x186B PUSH1 0x10 DUP4 PUSH2 0xEB3 JUMP JUMPDEST SWAP2 POP PUSH2 0x1876 DUP3 PUSH2 0x1835 JUMP JUMPDEST PUSH1 0x20 DUP3 ADD SWAP1 POP SWAP2 SWAP1 POP JUMP JUMPDEST PUSH1 0x0 PUSH1 0x20 DUP3 ADD SWAP1 POP DUP2 DUP2 SUB PUSH1 0x0 DUP4 ADD MSTORE PUSH2 0x189A DUP2 PUSH2 0x185E JUMP JUMPDEST SWAP1 POP SWAP2 SWAP1 POP JUMP INVALID LOG2 PUSH5 0x6970667358 0x22 SLT KECCAK256 SWAP7 0xF6 0x22 0xB8 0xC6 MSIZE 0xFB RETURN DUP13 0xCC SWAP8 0xD3 PUSH3 0xD47BB3 0xDC DUP8 0xDB SAR 0xB7 MSTORE8 0x23 JUMP ADDMOD SIGNEXTEND 0xC5 0xE6 0xDF SWAP12 CODECOPY 0x1F PUSH5 0x736F6C6343 STOP ADDMOD SHR STOP CALLER "
        },
        "methodIdentifiers": {
          "artCount()": "d3b3e9b0",
          "buyArt(uint256)": "fc7a900b",
          "getArt(uint256)": "8c4796c7",
          "listArt(string,string,uint256)": "7160f0cb",
          "listingFee()": "6a1b7ecc",
          "owner()": "8da5cb5b",
          "setListingFee(uint256)": "131dbd09",
          "withdrawFees(address)": "164e68de"
        }
      }
    }
  }
}