{
  "_format": "hh-sol-artifact-1",
  "contractName": "Crowdfunding",
  "sourceName": "contracts/Crowdfunding.sol",
  "abi": [
    {
      "inputs": [
        {
          "internalType": "address",
          "name": "_rewardToken",
          "type": "address"
        }
      ],
      "stateMutability": "nonpayable",
      "type": "constructor"
    },
    {
      "inputs": [],
      "name": "REWARD_RATE",
      "outputs": [
        {
          "internalType": "uint256",
          "name": "",
          "type": "uint256"
        }
      ],
      "stateMutability": "view",
      "type": "function"
    },
    {
      "inputs": [],
      "name": "campaignCount",
      "outputs": [
        {
          "internalType": "uint256",
          "name": "",
          "type": "uint256"
        }
      ],
      "stateMutability": "view",
      "type": "function"
    },
    {
      "inputs": [
        {
          "internalType": "uint256",
          "name": "",
          "type": "uint256"
        }
      ],
      "name": "campaigns",
      "outputs": [
        {
          "internalType": "string",
          "name": "title",
          "type": "string"
        },
        {
          "internalType": "uint256",
          "name": "goal",
          "type": "uint256"
        },
        {
          "internalType": "uint256",
          "name": "deadline",
          "type": "uint256"
        },
        {
          "internalType": "uint256",
          "name": "totalRaised",
          "type": "uint256"
        },
        {
          "internalType": "bool",
          "name": "finalized",
          "type": "bool"
        },
        {
          "internalType": "address",
          "name": "creator",
          "type": "address"
        }
      ],
      "stateMutability": "view",
      "type": "function"
    },
    {
      "inputs": [
        {
          "internalType": "uint256",
          "name": "campaignId",
          "type": "uint256"
        }
      ],
      "name": "contribute",
      "outputs": [],
      "stateMutability": "payable",
      "type": "function"
    },
    {
      "inputs": [
        {
          "internalType": "uint256",
          "name": "",
          "type": "uint256"
        },
        {
          "internalType": "address",
          "name": "",
          "type": "address"
        }
      ],
      "name": "contributions",
      "outputs": [
        {
          "internalType": "uint256",
          "name": "",
          "type": "uint256"
        }
      ],
      "stateMutability": "view",
      "type": "function"
    },
    {
      "inputs": [
        {
          "internalType": "string",
          "name": "title",
          "type": "string"
        },
        {
          "internalType": "uint256",
          "name": "goalWei",
          "type": "uint256"
        },
        {
          "internalType": "uint256",
          "name": "durationSeconds",
          "type": "uint256"
        }
      ],
      "name": "createCampaign",
      "outputs": [],
      "stateMutability": "nonpayable",
      "type": "function"
    },
    {
      "inputs": [
        {
          "internalType": "uint256",
          "name": "campaignId",
          "type": "uint256"
        }
      ],
      "name": "finalizeCampaign",
      "outputs": [],
      "stateMutability": "nonpayable",
      "type": "function"
    },
    {
      "inputs": [
        {
          "internalType": "uint256",
          "name": "id",
          "type": "uint256"
        }
      ],
      "name": "getCampaign",
      "outputs": [
        {
          "components": [
            {
              "internalType": "string",
              "name": "title",
              "type": "string"
            },
            {
              "internalType": "uint256",
              "name": "goal",
              "type": "uint256"
            },
            {
              "internalType": "uint256",
              "name": "deadline",
              "type": "uint256"
            },
            {
              "internalType": "uint256",
              "name": "totalRaised",
              "type": "uint256"
            },
            {
              "internalType": "bool",
              "name": "finalized",
              "type": "bool"
            },
            {
              "internalType": "address",
              "name": "creator",
              "type": "address"
            }
          ],
          "internalType": "struct Crowdfunding.Campaign",
          "name": "",
          "type": "tuple"
        }
      ],
      "stateMutability": "view",
      "type": "function"
    },
    {
      "inputs": [],
      "name": "rewardToken",
      "outputs": [
        {
          "internalType": "contract RewardToken",
          "name": "",
          "type": "address"
        }
      ],
      "stateMutability": "view",
      "type": "function"
    }
  ],
  "bytecode": "0x608060405234801561001057600080fd5b50604051611a9e380380611a9e8339818101604052810190610032919061014b565b600073ffffffffffffffffffffffffffffffffffffffff168173ffffffffffffffffffffffffffffffffffffffff16036100a1576040517f08c379a0000000000000000000000000000000000000000000000000000000008152600401610098906101d5565b60405180910390fd5b80600160006101000a81548173ffffffffffffffffffffffffffffffffffffffff021916908373ffffffffffffffffffffffffffffffffffffffff160217905550506101f5565b600080fd5b600073ffffffffffffffffffffffffffffffffffffffff82169050919050565b6000610118826100ed565b9050919050565b6101288161010d565b811461013357600080fd5b50565b6000815190506101458161011f565b92915050565b600060208284031215610161576101606100e8565b5b600061016f84828501610136565b91505092915050565b600082825260208201905092915050565b7f5a65726f2072657761726420746f6b656e000000000000000000000000000000600082015250565b60006101bf601183610178565b91506101ca82610189565b602082019050919050565b600060208201905081810360008301526101ee816101b2565b9050919050565b61189a806102046000396000f3fe6080604052600436106100865760003560e01c80635997bb37116100595780635997bb37146101705780636b5ca27d1461019b5780637274e30d146101c4578063c1cbbca7146101ef578063f7c618c11461020b57610086565b8063141961bc1461008b5780633020580b146100cd5780633d891f59146100f65780635598f8cc14610133575b600080fd5b34801561009757600080fd5b506100b260048036038101906100ad9190610bad565b610236565b6040516100c496959493929190610cd5565b60405180910390f35b3480156100d957600080fd5b506100f460048036038101906100ef9190610da2565b610327565b005b34801561010257600080fd5b5061011d60048036038101906101189190610e42565b610558565b60405161012a9190610e82565b60405180910390f35b34801561013f57600080fd5b5061015a60048036038101906101559190610bad565b61057d565b6040516101679190610f9d565b60405180910390f35b34801561017c57600080fd5b506101856106cb565b6040516101929190610e82565b60405180910390f35b3480156101a757600080fd5b506101c260048036038101906101bd9190610bad565b6106d0565b005b3480156101d057600080fd5b506101d96108d9565b6040516101e69190610e82565b60405180910390f35b61020960048036038101906102049190610bad565b6108df565b005b34801561021757600080fd5b50610220610af9565b60405161022d919061101e565b60405180910390f35b600260205280600052604060002060009150905080600001805461025990611068565b80601f016020809104026020016040519081016040528092919081815260200182805461028590611068565b80156102d25780601f106102a7576101008083540402835291602001916102d2565b820191906000526020600020905b8154815290600101906020018083116102b557829003601f168201915b5050505050908060010154908060020154908060030154908060040160009054906101000a900460ff16908060040160019054906101000a900473ffffffffffffffffffffffffffffffffffffffff16905086565b6000848490501161036d576040517f08c379a0000000000000000000000000000000000000000000000000000000008152600401610364906110e5565b60405180910390fd5b600082116103b0576040517f08c379a00000000000000000000000000000000000000000000000000000000081526004016103a790611151565b60405180910390fd5b600081116103f3576040517f08c379a00000000000000000000000000000000000000000000000000000000081526004016103ea906111bd565b60405180910390fd5b6040518060c0016040528085858080601f016020809104026020016040519081016040528093929190818152602001838380828437600081840152601f19601f820116905080830192505050505050508152602001838152602001824261045a919061120c565b8152602001600081526020016000151581526020013373ffffffffffffffffffffffffffffffffffffffff16815250600260008054815260200190815260200160002060008201518160000190816104b29190611411565b5060208201518160010155604082015181600201556060820151816003015560808201518160040160006101000a81548160ff02191690831515021790555060a08201518160040160016101000a81548173ffffffffffffffffffffffffffffffffffffffff021916908373ffffffffffffffffffffffffffffffffffffffff16021790555090505060008081548092919061054d906114e3565b919050555050505050565b6003602052816000526040600020602052806000526040600020600091509150505481565b610585610b1f565b600260008381526020019081526020016000206040518060c00160405290816000820180546105b390611068565b80601f01602080910402602001604051908101604052809291908181526020018280546105df90611068565b801561062c5780601f106106015761010080835404028352916020019161062c565b820191906000526020600020905b81548152906001019060200180831161060f57829003601f168201915b505050505081526020016001820154815260200160028201548152602001600382015481526020016004820160009054906101000a900460ff161515151581526020016004820160019054906101000a900473ffffffffffffffffffffffffffffffffffffffff1673ffffffffffffffffffffffffffffffffffffffff1673ffffffffffffffffffffffffffffffffffffffff16815250509050919050565b606481565b600060026000838152602001908152602001600020905060008160000180546106f890611068565b90501161073a576040517f08c379a000000000000000000000000000000000000000000000000000000000815260040161073190611577565b60405180910390fd5b8060020154421015610781576040517f08c379a0000000000000000000000000000000000000000000000000000000008152600401610778906115e3565b60405180910390fd5b8060040160009054906101000a900460ff16156107d3576040517f08c379a00000000000000000000000000000000000000000000000000000000081526004016107ca9061164f565b60405180910390fd5b60018160040160006101000a81548160ff02191690831515021790555080600101548160030154106108d55760008160040160019054906101000a900473ffffffffffffffffffffffffffffffffffffffff1673ffffffffffffffffffffffffffffffffffffffff16826003015460405161084d906116a0565b60006040518083038185875af1925050503d806000811461088a576040519150601f19603f3d011682016040523d82523d6000602084013e61088f565b606091505b50509050806108d3576040517f08c379a00000000000000000000000000000000000000000000000000000000081526004016108ca90611701565b60405180910390fd5b505b5050565b60005481565b6000600260008381526020019081526020016000209050600081600001805461090790611068565b905011610949576040517f08c379a000000000000000000000000000000000000000000000000000000000815260040161094090611577565b60405180910390fd5b8060020154421061098f576040517f08c379a00000000000000000000000000000000000000000000000000000000081526004016109869061176d565b60405180910390fd5b600034116109d2576040517f08c379a00000000000000000000000000000000000000000000000000000000081526004016109c9906117d9565b60405180910390fd5b348160030160008282546109e6919061120c565b92505081905550346003600084815260200190815260200160002060003373ffffffffffffffffffffffffffffffffffffffff1673ffffffffffffffffffffffffffffffffffffffff1681526020019081526020016000206000828254610a4d919061120c565b925050819055506000606434610a6391906117f9565b9050600160009054906101000a900473ffffffffffffffffffffffffffffffffffffffff1673ffffffffffffffffffffffffffffffffffffffff166340c10f1933836040518363ffffffff1660e01b8152600401610ac292919061183b565b600060405180830381600087803b158015610adc57600080fd5b505af1158015610af0573d6000803e3d6000fd5b50505050505050565b600160009054906101000a900473ffffffffffffffffffffffffffffffffffffffff1681565b6040518060c0016040528060608152602001600081526020016000815260200160008152602001600015158152602001600073ffffffffffffffffffffffffffffffffffffffff1681525090565b600080fd5b600080fd5b6000819050919050565b610b8a81610b77565b8114610b9557600080fd5b50565b600081359050610ba781610b81565b92915050565b600060208284031215610bc357610bc2610b6d565b5b6000610bd184828501610b98565b91505092915050565b600081519050919050565b600082825260208201905092915050565b60005b83811015610c14578082015181840152602081019050610bf9565b60008484015250505050565b6000601f19601f8301169050919050565b6000610c3c82610bda565b610c468185610be5565b9350610c56818560208601610bf6565b610c5f81610c20565b840191505092915050565b610c7381610b77565b82525050565b60008115159050919050565b610c8e81610c79565b82525050565b600073ffffffffffffffffffffffffffffffffffffffff82169050919050565b6000610cbf82610c94565b9050919050565b610ccf81610cb4565b82525050565b600060c0820190508181036000830152610cef8189610c31565b9050610cfe6020830188610c6a565b610d0b6040830187610c6a565b610d186060830186610c6a565b610d256080830185610c85565b610d3260a0830184610cc6565b979650505050505050565b600080fd5b600080fd5b600080fd5b60008083601f840112610d6257610d61610d3d565b5b8235905067ffffffffffffffff811115610d7f57610d7e610d42565b5b602083019150836001820283011115610d9b57610d9a610d47565b5b9250929050565b60008060008060608587031215610dbc57610dbb610b6d565b5b600085013567ffffffffffffffff811115610dda57610dd9610b72565b5b610de687828801610d4c565b94509450506020610df987828801610b98565b9250506040610e0a87828801610b98565b91505092959194509250565b610e1f81610cb4565b8114610e2a57600080fd5b50565b600081359050610e3c81610e16565b92915050565b60008060408385031215610e5957610e58610b6d565b5b6000610e6785828601610b98565b9250506020610e7885828601610e2d565b9150509250929050565b6000602082019050610e976000830184610c6a565b92915050565b600082825260208201905092915050565b6000610eb982610bda565b610ec38185610e9d565b9350610ed3818560208601610bf6565b610edc81610c20565b840191505092915050565b610ef081610b77565b82525050565b610eff81610c79565b82525050565b610f0e81610cb4565b82525050565b600060c0830160008301518482036000860152610f318282610eae565b9150506020830151610f466020860182610ee7565b506040830151610f596040860182610ee7565b506060830151610f6c6060860182610ee7565b506080830151610f7f6080860182610ef6565b5060a0830151610f9260a0860182610f05565b508091505092915050565b60006020820190508181036000830152610fb78184610f14565b905092915050565b6000819050919050565b6000610fe4610fdf610fda84610c94565b610fbf565b610c94565b9050919050565b6000610ff682610fc9565b9050919050565b600061100882610feb565b9050919050565b61101881610ffd565b82525050565b6000602082019050611033600083018461100f565b92915050565b7f4e487b7100000000000000000000000000000000000000000000000000000000600052602260045260246000fd5b6000600282049050600182168061108057607f821691505b60208210810361109357611092611039565b5b50919050565b7f456d707479207469746c65000000000000000000000000000000000000000000600082015250565b60006110cf600b83610be5565b91506110da82611099565b602082019050919050565b600060208201905081810360008301526110fe816110c2565b9050919050565b7f476f616c206d757374206265203e203000000000000000000000000000000000600082015250565b600061113b601083610be5565b915061114682611105565b602082019050919050565b6000602082019050818103600083015261116a8161112e565b9050919050565b7f4475726174696f6e206d757374206265203e2030000000000000000000000000600082015250565b60006111a7601483610be5565b91506111b282611171565b602082019050919050565b600060208201905081810360008301526111d68161119a565b9050919050565b7f4e487b7100000000000000000000000000000000000000000000000000000000600052601160045260246000fd5b600061121782610b77565b915061122283610b77565b925082820190508082111561123a576112396111dd565b5b92915050565b7f4e487b7100000000000000000000000000000000000000000000000000000000600052604160045260246000fd5b60008190508160005260206000209050919050565b60006020601f8301049050919050565b600082821b905092915050565b6000600883026112d17fffffffffffffffffffffffffffffffffffffffffffffffffffffffffffffffff82611294565b6112db8683611294565b95508019841693508086168417925050509392505050565b600061130e61130961130484610b77565b610fbf565b610b77565b9050919050565b6000819050919050565b611328836112f3565b61133c61133482611315565b8484546112a1565b825550505050565b600090565b611351611344565b61135c81848461131f565b505050565b5b8181101561138057611375600082611349565b600181019050611362565b5050565b601f8211156113c5576113968161126f565b61139f84611284565b810160208510156113ae578190505b6113c26113ba85611284565b830182611361565b50505b505050565b600082821c905092915050565b60006113e8600019846008026113ca565b1980831691505092915050565b600061140183836113d7565b9150826002028217905092915050565b61141a82610bda565b67ffffffffffffffff81111561143357611432611240565b5b61143d8254611068565b611448828285611384565b600060209050601f83116001811461147b5760008415611469578287015190505b61147385826113f5565b8655506114db565b601f1984166114898661126f565b60005b828110156114b15784890151825560018201915060208501945060208101905061148c565b868310156114ce57848901516114ca601f8916826113d7565b8355505b6001600288020188555050505b505050505050565b60006114ee82610b77565b91507fffffffffffffffffffffffffffffffffffffffffffffffffffffffffffffffff82036115205761151f6111dd565b5b600182019050919050565b7f4e6f20737563682063616d706169676e00000000000000000000000000000000600082015250565b6000611561601083610be5565b915061156c8261152b565b602082019050919050565b6000602082019050818103600083015261159081611554565b9050919050565b7f4e6f7420656e6465640000000000000000000000000000000000000000000000600082015250565b60006115cd600983610be5565b91506115d882611597565b602082019050919050565b600060208201905081810360008301526115fc816115c0565b9050919050565b7f416c72656164792066696e616c697a6564000000000000000000000000000000600082015250565b6000611639601183610be5565b915061164482611603565b602082019050919050565b600060208201905081810360008301526116688161162c565b9050919050565b600081905092915050565b50565b600061168a60008361166f565b91506116958261167a565b600082019050919050565b60006116ab8261167d565b9150819050919050565b7f5472616e73666572206661696c65640000000000000000000000000000000000600082015250565b60006116eb600f83610be5565b91506116f6826116b5565b602082019050919050565b6000602082019050818103600083015261171a816116de565b9050919050565b7f43616d706169676e20656e646564000000000000000000000000000000000000600082015250565b6000611757600e83610be5565b915061176282611721565b602082019050919050565b600060208201905081810360008301526117868161174a565b9050919050565b7f4e6f204554482073656e74000000000000000000000000000000000000000000600082015250565b60006117c3600b83610be5565b91506117ce8261178d565b602082019050919050565b600060208201905081810360008301526117f2816117b6565b9050919050565b600061180482610b77565b915061180f83610b77565b925082820261181d81610b77565b91508282048414831517611834576118336111dd565b5b5092915050565b60006040820190506118506000830185610cc6565b61185d6020830184610c6a565b939250505056fea2646970667358221220679aca5fbcfaeee21f93e7cecd002d1e2fbcb5bcbb52ac08d5597276225c152764736f6c634300081c0033",
  "linkReferences": {},
  "deployedLinkReferences": {}
}