{
  "_format": "hh-sol-artifact-1",
  "contractName": "SimpleArtMarket",
  "sourceName": "contracts/SimpleArtMarket.sol",
  "abi": [
    {
      "inputs": [],
      "stateMutability": "nonpayable",
      "type": "constructor"
    },
    {
      "anonymous": false,
      "inputs": [
        {
          "indexed": true,
          "internalType": "uint256",
          "name": "id",
          "type": "uint256"
        },
        {
          "indexed": true,
          "internalType": "address",
          "name": "buyer",
          "type": "address"
        },
        {
          "indexed": true,
          "internalType": "address",
          "name": "seller",
          "type": "address"
        },
        {
          "indexed": false,
          "internalType": "uint256",
          "name": "price",
          "type": "uint256"
        }
      ],
      "name": "ArtBought",
      "type": "event"
    },
    {
      "anonymous": false,
      "inputs": [
        {
          "indexed": true,
          "internalType": "uint256",
          "name": "id",
          "type": "uint256"
        },
        {
          "indexed": true,
          "internalType": "address",
          "name": "seller",
          "type": "address"
        },
        {
          "indexed": false,
          "internalType": "uint256",
          "name": "price",
          "type": "uint256"
        },
        {
          "indexed": false,
          "internalType": "string",
          "name": "title",
          "type": "string"
        }
      ],
      "name": "ArtListed",
      "type": "event"
    },
    {
      "anonymous": false,
      "inputs": [
        {
          "indexed": false,
          "internalType": "address",
          "name": "to",
          "type": "address"
        },
        {
          "indexed": false,
          "internalType": "uint256",
          "name": "amount",
          "type": "uint256"
        }
      ],
      "name": "FeesWithdrawn",
      "type": "event"
    },
    {
      "anonymous": false,
      "inputs": [
        {
          "indexed": false,
          "internalType": "uint256",
          "name": "newFee",
          "type": "uint256"
        }
      ],
      "name": "ListingFeeUpdated",
      "type": "event"
    },
    {
      "inputs": [],
      "name": "artCount",
      "outputs": [
        {
          "internalType": "uint256",
          "name": "",
          "type": "uint256"
        }
      ],
      "stateMutability": "view",
      "type": "function"
    },
    {
      "inputs": [
        {
          "internalType": "uint256",
          "name": "id",
          "type": "uint256"
        }
      ],
      "name": "buyArt",
      "outputs": [],
      "stateMutability": "payable",
      "type": "function"
    },
    {
      "inputs": [
        {
          "internalType": "uint256",
          "name": "id",
          "type": "uint256"
        }
      ],
      "name": "getArt",
      "outputs": [
        {
          "internalType": "string",
          "name": "title",
          "type": "string"
        },
        {
          "internalType": "string",
          "name": "imageURL",
          "type": "string"
        },
        {
          "internalType": "uint256",
          "name": "price",
          "type": "uint256"
        },
        {
          "internalType": "address",
          "name": "seller",
          "type": "address"
        },
        {
          "internalType": "address",
          "name": "buyer",
          "type": "address"
        },
        {
          "internalType": "bool",
          "name": "sold",
          "type": "bool"
        }
      ],
      "stateMutability": "view",
      "type": "function"
    },
    {
      "inputs": [
        {
          "internalType": "string",
          "name": "title",
          "type": "string"
        },
        {
          "internalType": "string",
          "name": "imageURL",
          "type": "string"
        },
        {
          "internalType": "uint256",
          "name": "priceWei",
          "type": "uint256"
        }
      ],
      "name": "listArt",
      "outputs": [],
      "stateMutability": "payable",
      "type": "function"
    },
    {
      "inputs": [],
      "name": "listingFee",
      "outputs": [
        {
          "internalType": "uint256",
          "name": "",
          "type": "uint256"
        }
      ],
      "stateMutability": "view",
      "type": "function"
    },
    {
      "inputs": [],
      "name": "owner",
      "outputs": [
        {
          "internalType": "address payable",
          "name": "",
          "type": "address"
        }
      ],
      "stateMutability": "view",
      "type": "function"
    },
    {
      "inputs": [
        {
          "internalType": "uint256",
          "name": "newFee",
          "type": "uint256"
        }
      ],
      "name": "setListingFee",
      "outputs": [],
      "stateMutability": "nonpayable",
      "type": "function"
    },
    {
      "inputs": [
        {
          "internalType": "address payable",
          "name": "to",
          "type": "address"
        }
      ],
      "name": "withdrawFees",
      "outputs": [],
      "stateMutability": "nonpayable",
      "type": "function"
    }
  ],
  "bytecode": "0x608060405266071afd498d0000600255348015601a57600080fd5b5033600360006101000a81548173ffffffffffffffffffffffffffffffffffffffff021916908373ffffffffffffffffffffffffffffffffffffffff1602179055506118d78061006b6000396000f3fe60806040526004361061007b5760003560e01c80638c4796c71161004e5780638c4796c7146101195780638da5cb5b1461015b578063d3b3e9b014610186578063fc7a900b146101b15761007b565b8063131dbd0914610080578063164e68de146100a95780636a1b7ecc146100d25780637160f0cb146100fd575b600080fd5b34801561008c57600080fd5b506100a760048036038101906100a29190610ccc565b6101cd565b005b3480156100b557600080fd5b506100d060048036038101906100cb9190610d57565b61029e565b005b3480156100de57600080fd5b506100e76103fa565b6040516100f49190610d93565b60405180910390f35b61011760048036038101906101129190610e13565b610400565b005b34801561012557600080fd5b50610140600480360381019061013b9190610ccc565b610769565b60405161015296959493929190610f74565b60405180910390f35b34801561016757600080fd5b50610170610971565b60405161017d9190610ff2565b60405180910390f35b34801561019257600080fd5b5061019b610997565b6040516101a89190610d93565b60405180910390f35b6101cb60048036038101906101c69190610ccc565b61099d565b005b600360009054906101000a900473ffffffffffffffffffffffffffffffffffffffff1673ffffffffffffffffffffffffffffffffffffffff163373ffffffffffffffffffffffffffffffffffffffff161461025d576040517f08c379a000000000000000000000000000000000000000000000000000000000815260040161025490611059565b60405180910390fd5b806002819055507f5fb4654f1efe30c6141eaa6855ffcb27e0b361d899b05e21b1a4d0b3e71e14db816040516102939190610d93565b60405180910390a150565b600360009054906101000a900473ffffffffffffffffffffffffffffffffffffffff1673ffffffffffffffffffffffffffffffffffffffff163373ffffffffffffffffffffffffffffffffffffffff161461032e576040517f08c379a000000000000000000000000000000000000000000000000000000000815260040161032590611059565b60405180910390fd5b600047905060008111610376576040517f08c379a000000000000000000000000000000000000000000000000000000000815260040161036d906110c5565b60405180910390fd5b8173ffffffffffffffffffffffffffffffffffffffff166108fc829081150290604051600060405180830381858888f193505050501580156103bc573d6000803e3d6000fd5b507fc0819c13be868895eb93e40eaceb96de976442fa1d404e5c55f14bb65a8c489a82826040516103ee929190611144565b60405180910390a15050565b60025481565b600254341015610445576040517f08c379a000000000000000000000000000000000000000000000000000000000815260040161043c906111b9565b60405180910390fd5b6000858590501161048b576040517f08c379a000000000000000000000000000000000000000000000000000000000815260040161048290611225565b60405180910390fd5b600083839050116104d1576040517f08c379a00000000000000000000000000000000000000000000000000000000081526004016104c890611291565b60405180910390fd5b60008111610514576040517f08c379a000000000000000000000000000000000000000000000000000000000815260040161050b906112fd565b60405180910390fd5b6001600080828254610526919061134c565b925050819055506040518060c0016040528086868080601f016020809104026020016040519081016040528093929190818152602001838380828437600081840152601f19601f82011690508083019250505050505050815260200184848080601f016020809104026020016040519081016040528093929190818152602001838380828437600081840152601f19601f8201169050808301925050505050505081526020018281526020013373ffffffffffffffffffffffffffffffffffffffff168152602001600073ffffffffffffffffffffffffffffffffffffffff168152602001600015158152506001600080548152602001908152602001600020600082015181600001908161063b91906115b1565b50602082015181600101908161065191906115b1565b506040820151816002015560608201518160030160006101000a81548173ffffffffffffffffffffffffffffffffffffffff021916908373ffffffffffffffffffffffffffffffffffffffff16021790555060808201518160040160006101000a81548173ffffffffffffffffffffffffffffffffffffffff021916908373ffffffffffffffffffffffffffffffffffffffff16021790555060a08201518160040160146101000a81548160ff0219169083151502179055509050503373ffffffffffffffffffffffffffffffffffffffff166000547fda9a965882b8956b9b62137576a53373e4849a38734872a25165c9bcbd201b0b83888860405161075a939291906116bf565b60405180910390a35050505050565b60608060008060008060008711801561078457506000548711155b6107c3576040517f08c379a00000000000000000000000000000000000000000000000000000000081526004016107ba9061173d565b60405180910390fd5b6000600160008981526020019081526020016000209050806000018160010182600201548360030160009054906101000a900473ffffffffffffffffffffffffffffffffffffffff168460040160009054906101000a900473ffffffffffffffffffffffffffffffffffffffff168560040160149054906101000a900460ff1685805461084f906113de565b80601f016020809104026020016040519081016040528092919081815260200182805461087b906113de565b80156108c85780601f1061089d576101008083540402835291602001916108c8565b820191906000526020600020905b8154815290600101906020018083116108ab57829003601f168201915b505050505095508480546108db906113de565b80601f0160208091040260200160405190810160405280929190818152602001828054610907906113de565b80156109545780601f1061092957610100808354040283529160200191610954565b820191906000526020600020905b81548152906001019060200180831161093757829003601f168201915b505050505094509650965096509650965096505091939550919395565b600360009054906101000a900473ffffffffffffffffffffffffffffffffffffffff1681565b60005481565b6000811180156109af57506000548111155b6109ee576040517f08c379a00000000000000000000000000000000000000000000000000000000081526004016109e59061173d565b60405180910390fd5b60006001600083815260200190815260200160002090508060040160149054906101000a900460ff1615610a57576040517f08c379a0000000000000000000000000000000000000000000000000000000008152600401610a4e906117a9565b60405180910390fd5b8060030160009054906101000a900473ffffffffffffffffffffffffffffffffffffffff1673ffffffffffffffffffffffffffffffffffffffff163373ffffffffffffffffffffffffffffffffffffffff1603610ae9576040517f08c379a0000000000000000000000000000000000000000000000000000000008152600401610ae090611815565b60405180910390fd5b80600201543414610b2f576040517f08c379a0000000000000000000000000000000000000000000000000000000008152600401610b2690611881565b60405180910390fd5b60018160040160146101000a81548160ff021916908315150217905550338160040160006101000a81548173ffffffffffffffffffffffffffffffffffffffff021916908373ffffffffffffffffffffffffffffffffffffffff1602179055508060030160009054906101000a900473ffffffffffffffffffffffffffffffffffffffff1673ffffffffffffffffffffffffffffffffffffffff166108fc349081150290604051600060405180830381858888f19350505050158015610bf9573d6000803e3d6000fd5b508060030160009054906101000a900473ffffffffffffffffffffffffffffffffffffffff1673ffffffffffffffffffffffffffffffffffffffff163373ffffffffffffffffffffffffffffffffffffffff16837fcc678b4ddedcb4b06fe436a1105899f4924c13704d381fd73e87b30c2aab49108460020154604051610c809190610d93565b60405180910390a45050565b600080fd5b600080fd5b6000819050919050565b610ca981610c96565b8114610cb457600080fd5b50565b600081359050610cc681610ca0565b92915050565b600060208284031215610ce257610ce1610c8c565b5b6000610cf084828501610cb7565b91505092915050565b600073ffffffffffffffffffffffffffffffffffffffff82169050919050565b6000610d2482610cf9565b9050919050565b610d3481610d19565b8114610d3f57600080fd5b50565b600081359050610d5181610d2b565b92915050565b600060208284031215610d6d57610d6c610c8c565b5b6000610d7b84828501610d42565b91505092915050565b610d8d81610c96565b82525050565b6000602082019050610da86000830184610d84565b92915050565b600080fd5b600080fd5b600080fd5b60008083601f840112610dd357610dd2610dae565b5b8235905067ffffffffffffffff811115610df057610def610db3565b5b602083019150836001820283011115610e0c57610e0b610db8565b5b9250929050565b600080600080600060608688031215610e2f57610e2e610c8c565b5b600086013567ffffffffffffffff811115610e4d57610e4c610c91565b5b610e5988828901610dbd565b9550955050602086013567ffffffffffffffff811115610e7c57610e7b610c91565b5b610e8888828901610dbd565b93509350506040610e9b88828901610cb7565b9150509295509295909350565b600081519050919050565b600082825260208201905092915050565b60005b83811015610ee2578082015181840152602081019050610ec7565b60008484015250505050565b6000601f19601f8301169050919050565b6000610f0a82610ea8565b610f148185610eb3565b9350610f24818560208601610ec4565b610f2d81610eee565b840191505092915050565b6000610f4382610cf9565b9050919050565b610f5381610f38565b82525050565b60008115159050919050565b610f6e81610f59565b82525050565b600060c0820190508181036000830152610f8e8189610eff565b90508181036020830152610fa28188610eff565b9050610fb16040830187610d84565b610fbe6060830186610f4a565b610fcb6080830185610f4a565b610fd860a0830184610f65565b979650505050505050565b610fec81610d19565b82525050565b60006020820190506110076000830184610fe3565b92915050565b7f4f6e6c79206f776e657200000000000000000000000000000000000000000000600082015250565b6000611043600a83610eb3565b915061104e8261100d565b602082019050919050565b6000602082019050818103600083015261107281611036565b9050919050565b7f4e6f206665657300000000000000000000000000000000000000000000000000600082015250565b60006110af600783610eb3565b91506110ba82611079565b602082019050919050565b600060208201905081810360008301526110de816110a2565b9050919050565b6000819050919050565b600061110a61110561110084610cf9565b6110e5565b610cf9565b9050919050565b600061111c826110ef565b9050919050565b600061112e82611111565b9050919050565b61113e81611123565b82525050565b60006040820190506111596000830185611135565b6111666020830184610d84565b9392505050565b7f4c697374696e6720666565206e6f742070616964000000000000000000000000600082015250565b60006111a3601483610eb3565b91506111ae8261116d565b602082019050919050565b600060208201905081810360008301526111d281611196565b9050919050565b7f456d707479207469746c65000000000000000000000000000000000000000000600082015250565b600061120f600b83610eb3565b915061121a826111d9565b602082019050919050565b6000602082019050818103600083015261123e81611202565b9050919050565b7f456d70747920696d61676555524c000000000000000000000000000000000000600082015250565b600061127b600e83610eb3565b915061128682611245565b602082019050919050565b600060208201905081810360008301526112aa8161126e565b9050919050565b7f5072696365206d757374206265203e2030000000000000000000000000000000600082015250565b60006112e7601183610eb3565b91506112f2826112b1565b602082019050919050565b60006020820190508181036000830152611316816112da565b9050919050565b7f4e487b7100000000000000000000000000000000000000000000000000000000600052601160045260246000fd5b600061135782610c96565b915061136283610c96565b925082820190508082111561137a5761137961131d565b5b92915050565b7f4e487b7100000000000000000000000000000000000000000000000000000000600052604160045260246000fd5b7f4e487b7100000000000000000000000000000000000000000000000000000000600052602260045260246000fd5b600060028204905060018216806113f657607f821691505b602082108103611409576114086113af565b5b50919050565b60008190508160005260206000209050919050565b60006020601f8301049050919050565b600082821b905092915050565b6000600883026114717fffffffffffffffffffffffffffffffffffffffffffffffffffffffffffffffff82611434565b61147b8683611434565b95508019841693508086168417925050509392505050565b60006114ae6114a96114a484610c96565b6110e5565b610c96565b9050919050565b6000819050919050565b6114c883611493565b6114dc6114d4826114b5565b848454611441565b825550505050565b600090565b6114f16114e4565b6114fc8184846114bf565b505050565b5b81811015611520576115156000826114e9565b600181019050611502565b5050565b601f821115611565576115368161140f565b61153f84611424565b8101602085101561154e578190505b61156261155a85611424565b830182611501565b50505b505050565b600082821c905092915050565b60006115886000198460080261156a565b1980831691505092915050565b60006115a18383611577565b9150826002028217905092915050565b6115ba82610ea8565b67ffffffffffffffff8111156115d3576115d2611380565b5b6115dd82546113de565b6115e8828285611524565b600060209050601f83116001811461161b5760008415611609578287015190505b6116138582611595565b86555061167b565b601f1984166116298661140f565b60005b828110156116515784890151825560018201915060208501945060208101905061162c565b8683101561166e578489015161166a601f891682611577565b8355505b6001600288020188555050505b505050505050565b82818337600083830152505050565b600061169e8385610eb3565b93506116ab838584611683565b6116b483610eee565b840190509392505050565b60006040820190506116d46000830186610d84565b81810360208301526116e7818486611692565b9050949350505050565b7f496e76616c696420696400000000000000000000000000000000000000000000600082015250565b6000611727600a83610eb3565b9150611732826116f1565b602082019050919050565b600060208201905081810360008301526117568161171a565b9050919050565b7f416c726561647920736f6c640000000000000000000000000000000000000000600082015250565b6000611793600c83610eb3565b915061179e8261175d565b602082019050919050565b600060208201905081810360008301526117c281611786565b9050919050565b7f43616e6e6f742062757920796f7572206f776e20617274000000000000000000600082015250565b60006117ff601783610eb3565b915061180a826117c9565b602082019050919050565b6000602082019050818103600083015261182e816117f2565b9050919050565b7f53656e6420657861637420707269636500000000000000000000000000000000600082015250565b600061186b601083610eb3565b915061187682611835565b602082019050919050565b6000602082019050818103600083015261189a8161185e565b905091905056fea264697066735822122096f622b8c659fbf38ccc97d362d47bb3dc87db1db7532356080bc5e6df9b391f64736f6c634300081c0033",
  "linkReferences": {},
  "deployedLinkReferences": {}
}